:020000040800F2
:1000000000280020491000086D0F0008730F000839
:10001000790F00087F0F0008850F0008000000001E
:100020000000000000000000000000008B0F00082E
:10003000970F000800000000A30F0008AF0F000892
:10004000911000089110000891100008911000080C
:1000500091100008911000089110000891100008FC
:1000600091100008911000089110000891100008EC
:1000700091100008911000089110000891100008DC
:1000800091100008911000089110000891100008CC
:1000900091100008911000089110000891100008BC
:1000A00091100008911000089110000891100008AC
:1000B00091100008BD0F000800000000911000081A
:1000C00091100008000000000000000091100008DE
:1000D00000000000911000089110000800000000CE
:1000E0009110000891100008911000080000000015
:1000F0000000000000000000000000000000000000
:0C01000000000000000000005FF808F1A3
:10010C0010B5054C237833B9044B13B10448AFF345
:10011C0000800123237010BD70000020000000003F
:10012C008C36000808B5034B1BB103490348AFF3E9
:10013C00008008BD00000000740000208C36000810
:10014C0081F0004102E000BF83F0004330B54FEA7C
:10015C0041044FEA430594EA050F08BF90EA020FE9
:10016C001FBF54EA000C55EA020C7FEA645C7FEA7C
:10017C00655C00F0E2804FEA5454D4EB5555B8BF9F
:10018C006D420CDD2C4480EA020281EA030382EA10
:10019C00000083EA010180EA020281EA0303362DA2
:1001AC0088BF30BD11F0004F4FEA01314FF4801C75
:1001BC004CEA113102D0404261EB410113F0004F87
:1001CC004FEA03334CEA133302D0524263EB43033E
:1001DC0094EA050F00F0A780A4F10104D5F1200EDC
:1001EC000DDB02FA0EFC22FA05F2801841F1000137
:1001FC0003FA0EF2801843FA05F359410EE0A5F10B
:10020C0020050EF1200E012A03FA0EFC28BF4CF03B
:10021C00020C43FA05F3C01851EBE37101F00045F1
:10022C0007D54FF0000EDCF1000C7EEB00006EEBFE
:10023C000101B1F5801F1BD3B1F5001F0CD3490888
:10024C005FEA30004FEA3C0C04F101044FEA4452DF
:10025C0012F5800F80F09A80BCF1004F08BF5FEA66
:10026C00500C50F1000041EB045141EA050130BD46
:10027C005FEA4C0C404141EB0101013C28BFB1F558
:10028C00801FE9D291F0000F04BF01460020B1FAA3
:10029C0081F308BF2033A3F10B03B3F120020CDA76
:1002AC000C3208DD02F1140CC2F10C0201FA0CF054
:1002BC0021FA02F10CE002F11402D8BFC2F1200CB9
:1002CC0001FA02F120FA0CFCDCBF41EA0C0190406F
:1002DC00E41AA2BF01EB0451294330BD6FEA0404B8
:1002EC001F3C1CDA0C340EDC04F11404C4F12002A3
:1002FC0020FA04F001FA02F340EA030021FA04F3B5
:10030C0045EA030130BDC4F10C04C4F1200220FA0B
:10031C0002F001FA04F340EA0300294630BD21FA49
:10032C0004F0294630BD94F0000F83F4801306BF0F
:10033C0081F480110134013D4EE77FEA645C18BF03
:10034C007FEA655C29D094EA050F08BF90EA020F9A
:10035C0005D054EA000C04BF1946104630BD91EA92
:10036C00030F1EBF0021002030BD5FEA545C05D195
:10037C004000494128BF41F0004130BD14F58004D4
:10038C003CBF01F5801130BD01F0004545F0FE4148
:10039C0041F470014FF0000030BD7FEA645C1ABF7D
:1003AC00194610467FEA655C1CBF0B46024650EAB4
:1003BC00013406BF52EA033591EA030F41F40021E0
:1003CC0030BD00BF90F0000F04BF0021704730B566
:1003DC004FF4806404F132044FF000054FF000013B
:1003EC0050E700BF90F0000F04BF0021704730B5FC
:1003FC004FF4806404F1320410F0004548BF4042D1
:10040C004FF000013EE700BF42004FEAE2014FEA25
:10041C0031014FEA02701FBF12F07F4393F07F4F00
:10042C0081F06051704732F07F4208BF704793F003
:10043C007F4F04BF41F40021704730B54FF4607416
:10044C0001F0004521F000411CE700BF50EA010219
:10045C0008BF704730B54FF000050AE050EA0102C2
:10046C0008BF704730B511F0004502D5404261EB32
:10047C0041014FF4806404F132045FEA915C3FF473
:10048C00D8AE4FF003025FEADC0C18BF03325FEA10
:10049C00DC0C18BF033202EBDC02C2F1200300FAC1
:1004AC0003FC20FA02F001FA03FE40EA0E0021FAE6
:1004BC0002F11444BDE600BF80F0004002E000BF32
:1004CC0081F0004142001FBF5FEA410392EA030F33
:1004DC007FEA226C7FEA236C6AD04FEA1262D2EB7D
:1004EC001363C1BFD218414048404140B8BF5B4282
:1004FC00192B88BF704710F0004F40F4000020F01B
:10050C007F4018BF404211F0004F41F4000121F030
:10051C007F4118BF494292EA030F3FD0A2F101027A
:10052C0041FA03FC10EB0C00C3F1200301FA03F1B8
:10053C0000F0004302D5494260EB4000B0F5000FDB
:10054C0013D3B0F1807F06D340084FEA310102F19A
:10055C000102FE2A51D2B1F1004F40EBC25008BF4C
:10056C0020F0010040EA03007047490040EB000016
:10057C00013A28BFB0F5000FEDD2B0FA80FCACF117
:10058C00080CB2EB0C0200FA0CF0AABF00EBC25044
:10059C0052421843BCBFD0401843704792F0000F32
:1005AC0081F4000106BF80F400000132013BB5E785
:1005BC004FEA41037FEA226C18BF7FEA236C21D0FB
:1005CC0092EA030F04D092F0000F08BF0846704760
:1005DC0090EA010F1CBF0020704712F07F4F04D12E
:1005EC00400028BF40F00040704712F100723CBF41
:1005FC0000F50000704700F0004343F0FE4040F46B
:10060C00000070477FEA226216BF08467FEA236328
:10061C000146420206BF5FEA412390EA010F40F413
:10062C00800070474FF0000304E000BF10F000435F
:10063C0048BF40425FEA000C08BF704743F0964346
:10064C0001464FF000001CE050EA010208BF704761
:10065C004FF000030AE000BF50EA010208BF7047E8
:10066C0011F0004302D5404261EB41015FEA010CFD
:10067C0002BF84460146002043F0B64308BFA3F1F5
:10068C008053A3F50003BCFA8CF2083AA3EBC253D7
:10069C0010DB01FA02FC634400FA02FCC2F12002F6
:1006AC00BCF1004F20FA02F243EB020008BF20F02D
:1006BC000100704702F1200201FA02FCC2F1200293
:1006CC0050EA4C0021FA02F243EB020008BF20EA88
:1006DC00DC7070474FF0FF0C1CEAD0521EBF1CEAB6
:1006EC00D15392EA0C0F93EA0C0F6FD01A4480EAA4
:1006FC00010C400218BF5FEA41211ED04FF000638D
:10070C0043EA501043EA5111A0FB01310CF00040B8
:10071C00B1F5000F3EBF490041EAD3715B0040EADE
:10072C00010062F17F02FD2A1DD8B3F1004F40EBAE
:10073C00C25008BF20F00100704790F0000F0CF081
:10074C00004C08BF49024CEA502040EA51207F3A45
:10075C00C2BFD2F1FF0340EAC250704740F4000020
:10076C004FF00003013A5DDC12F1190FDCBF00F011
:10077C0000407047C2F10002410021FA02F1C2F1BF
:10078C00200200FA02FC5FEA310040F1000053EA5B
:10079C004C0308BF20EADC70704792F0000F00F0A9
:1007AC00004C02BF400010F4000F013AF9D040EAAF
:1007BC000C0093F0000F01F0004C02BF490011F443
:1007CC00000F013BF9D041EA0C018FE70CEAD15341
:1007DC0092EA0C0F18BF93EA0C0F0AD030F0004CC1
:1007EC0018BF31F0004CD8D180EA010000F0004075
:1007FC00704790F0000F17BF90F0004F084691F033
:10080C00000F91F0004F14D092EA0C0F01D142026C
:10081C000FD193EA0C0F03D14B0218BF084608D135
:10082C0080EA010000F0004040F0FE4040F400007F
:10083C00704740F0FE4040F4400070474FF0FF0C12
:10084C001CEAD0521EBF1CEAD15392EA0C0F93EA59
:10085C000C0F69D0A2EB030280EA010C49024FEAAB
:10086C00402037D04FF0805343EA111143EA101364
:10087C000CF000408B4238BF5B0042F17D024FF41C
:10088C00000C8B4224BF5B1A40EA0C00B3EB510FF7
:10089C0024BFA3EB510340EA5C00B3EB910F24BFE0
:1008AC00A3EB910340EA9C00B3EBD10F24BFA3EB65
:1008BC00D10340EADC001B0118BF5FEA1C1CE0D12D
:1008CC00FD2A3FF650AF8B4240EBC25008BF20F0E0
:1008DC00010070470CF0004C4CEA50207F32C2BF34
:1008EC00D2F1FF0340EAC250704740F400004FF0D1
:1008FC000003013A37E792F0000F00F0004C02BF02
:10090C00400010F4000F013AF9D040EA0C0093F0CB
:10091C00000F01F0004C02BF490011F4000F013B25
:10092C00F9D041EA0C0195E70CEAD15392EA0C0F8D
:10093C0008D142027FF47DAF93EA0C0F7FF470AFC5
:10094C00084676E793EA0C0F04D14B023FF44CAF08
:10095C0008466EE730F0004C18BF31F0004CCAD19D
:10096C0030F000427FF45CAF31F000437FF43CAFD9
:10097C005FE700BF80B500AF022000F0E7FB02206C
:10098C0000F008F8282000F005F80F2000F002F81D
:10099C0000BF80BD80B582B000AF0346FB71022062
:1009AC0000F0D4FB002201210A4800F07DFE002259
:1009BC000221084800F078FEFB791B09DBB21846CF
:1009CC0000F00AF8FB79184600F006F800BF08376B
:1009DC00BD4680BD000C014080B588B000AF034619
:1009EC00FB710A2000F0B2FB0023FB610EE0FB79E7
:1009FC0003F00102FB699B0020333B4443F8142CA9
:100A0C00FB795B08FB71FB690133FB61FB69032B11
:100A1C00EDDDFB68DBB21A460121144800F044FE00
:100A2C003B69DBB21A460221104800F03DFE7B699F
:100A3C00DBB21A4604210D4800F036FEBB69DBB26E
:100A4C001A460821094800F02FFE0122042108480B
:100A5C0000F02AFE022000F079FB00220421044859
:100A6C0000F022FE00BF2037BD4680BD00080140CB
:100A7C00000C014080B582B000AF0346FB71022030
:100A8C0000F064FB012201210A4800F00DFE002257
:100A9C000221084800F008FEFB791B09DBB218465E
:100AAC00FFF79AFFFB791846FFF796FF00BF083750
:100ABC00BD4680BD000C014080B582B000AF7860AF
:100ACC00022000F043FB07E07B681B781846FFF719
:100ADC00D1FF7B6801337B607B681B78002BF3D1E3
:100AEC0000BF00BF0837BD4680BD80B582B000AFE7
:100AFC0003460A46FB711346BB71012000F026FB2E
:100B0C00BB79002B02D0012B07D00DE0FB79803B89
:100B1C00DBB21846FFF73EFF06E0FB79403BDBB249
:100B2C001846FFF737FF00BF00BF0837BD4680BD32
:100B3C0080B500AF00F0A8FA00F042F800F0F0F831
:100B4C0000F07EF8FFF716FF184801F0F3F90021CA
:100B5C00164801F093FA00210020FFF7C6FF144B52
:100B6C001B681846FFF750FC02460B461149124809
:100B7C0002F00CF91048FFF79FFF01210020FFF74E
:100B8C00B4FF0B4B1B684FF080411846FFF756FE25
:100B9C0003461846FFF738FC02460B460749064841
:100BAC0002F0F4F80448FFF787FFD4E78C0000202C
:100BBC00D4000020A4360008E8000020AC36000861
:100BCC0080B590B000AF07F1180328220021184619
:100BDC0002F0D4F83B1D00221A605A609A60DA6069
:100BEC001A610223BB610123BB621023FB62022347
:100BFC007B630023BB634FF44023FB6307F11803B3
:100C0C00184600F069FD0346002B01D000F03AF9BC
:100C1C000F237B600223BB608023FB6000233B61BE
:100C2C0000237B613B1D0021184600F0D7FF0346D3
:100C3C00002B01D000F026F900BF4037BD4680BD27
:100C4C0080B58AB000AF07F1180300221A605A6011
:100C5C009A60DA6007F1100300221A605A603B4672
:100C6C0000221A605A609A60DA602B4B2B4A1A6089
:100C7C00294B00225A60284B00229A60264B4EF6D4
:100C8C005F22DA60244B00221A61234B80229A6186
:100C9C00214801F0FFF80346002B01D000F0F2F8D8
:100CAC004FF48053BB6107F1180319461A4801F041
:100CBC008FFC0346002B01D000F0E4F8164801F03D
:100CCC0085F90346002B01D000F0DCF800233B61D2
:100CDC0000237B6107F1100319460F4801F0BAFF9E
:100CEC000346002B01D000F0CDF800233B6001231C
:100CFC007B600023BB600023FB603B46002219464F
:100D0C00054801F0C9FB0346002B01D000F0BAF8EE
:100D1C0000BF2837BD4680BD8C0000200004004079
:100D2C0080B586B000AF07F1080300221A605A6044
:100D3C009A60DA60204B9B691F4A43F0040393616D
:100D4C001D4B9B6903F004037B607B681A4B9B690A
:100D5C00194A43F008039361174B9B6903F008038E
:100D6C003B603B6800220F21144800F09DFC0022E0
:100D7C000721134800F098FC0F23BB600123FB6094
:100D8C0000233B6102237B6107F1080319460B48E2
:100D9C0000F00EFB0723BB600123FB6000233B61CB
:100DAC0002237B6107F108031946054800F000FB9C
:100DBC0000BF1837BD4680BD00100240000801403E
:100DCC00000C014080B483B000AF7860044B1B680A
:100DDC000133034A136000BF0C37BD4680BC70471B
:100DEC00D800002080B582B000AF78601E4B1B6825
:100DFC00002B0ED100211D4801F0B2FC03461A460F
:100E0C001B4B1A601B4B00221A60174B01221A60F5
:100E1C0026E0154B1B68012B22D10021134801F051
:100E2C009FFC03461A46144B1A60124B1B684EF675
:100E3C00602203FB02F2104B1B681A440C4B1B681C
:100E4C00D31A1846FFF7F2FB034619460B48FFF777
:100E5C00F5FC03461A460A4B1A60034B00221A6033
:100E6C0000BF0837BD4680BDDC0000208C00002090
:100E7C00E0000020D8000020E400002000401C46C8
:100E8C00D400002080B400AF72B600BFFEE70000B3
:100E9C0080B483B000AF0E4B9B690D4A43F0010345
:100EAC0093610B4B9B6903F001037B607B68084BE0
:100EBC00DB69074A43F08053D361054BDB6903F0D0
:100ECC0080533B603B6800BF0C37BD4680BC70470D
:100EDC000010024080B588B000AF786007F11003B5
:100EEC0000221A605A609A60DA607B681B68194AA3
:100EFC0093422BD1184BDB69174A43F00203D361A1
:100F0C00154BDB6903F00203FB60FB68124B9B691A
:100F1C00114A43F0040393610F4B9B6903F00403E4
:100F2C00BB60BB6840233B6100237B610023BB613A
:100F3C0007F110031946094800F03AFA0022002183
:100F4C001D2000F0FEF91D2000F017FA00BF20371D
:100F5C00BD4680BD00040040001002400008014066
:100F6C0080B400AFFEE780B400AFFEE780B400AF02
:100F7C00FEE780B400AFFEE780B400AFFEE780B4BC
:100F8C0000AF00BFBD4680BC704780B400AF00BF4F
:100F9C00BD4680BC704780B400AF00BFBD4680BC6E
:100FAC00704780B500AF00F0B5F800BF80BD000001
:100FBC0080B500AF024801F067F900BF80BD00BFEB
:100FCC008C00002080B586B000AF7860144A154BB9
:100FDC00D31A7B617B693B61134B1B68002B02D1DD
:100FEC00114B124A1A60104B1A687B6813443A6909
:100FFC009A4207D201F098FE03460C221A604FF079
:10100C00FF3309E0084B1B68FB60074B1A687B68D1
:10101C001344054A1360FB6818461837BD4680BD5B
:10102C0000280020000400000801002020010020FE
:10103C0080B400AF00BFBD4680BC7047FFF7F8FF1F
:10104C000B480C490C4A002302E0D458C45004331A
:10105C00C4188C42F9D3094A094C002301E01360EF
:10106C000432A242FBD301F065FEFFF761FD70472D
:10107C0000000020700000201C37000870000020C9
:10108C0020010020FEE7000080B500AF084B1B6874
:10109C00074A43F010031360032000F047F90F20B8
:1010AC0000F008F8FFF7F4FE0023184680BD00BFDF
:1010BC000020024080B582B000AF7860124B1A68F5
:1010CC00124B1B7819464FF47A73B3FBF1F3B2FB56
:1010DC00F3F3184600F05FF90346002B01D001230F
:1010EC000EE07B680F2B0AD8002279684FF0FF3096
:1010FC0000F027F9064A7B681360002300E0012307
:10110C0018460837BD4680BD0000002008000020AE
:10111C000400002080B400AF054B1B781A46054B29
:10112C001B681344034A136000BFBD4680BC704764
:10113C00080000200C01002080B400AF024B1B689B
:10114C001846BD4680BC70470C01002080B584B0A9
:10115C0000AF7860FFF7F0FFB8607B68FB60FB685E
:10116C00B3F1FF3F05D00A4B1B781A46FB681344BA
:10117C00FB6000BFFFF7E0FF0246BB68D31AFA68BA
:10118C009A42F7D800BF00BF1037BD4680BD00BFE4
:10119C000800002080B485B000AF78607B6803F055
:1011AC000703FB600C4BDB68BB60BA684FF6FF03B0
:1011BC001340BB60FB681A02BB68134343F0BF6368
:1011CC0043F40033BB60044ABB68D36000BF1437E0
:1011DC00BD4680BC704700BF00ED00E080B400AF9E
:1011EC00044BDB681B0A03F007031846BD4680BCA2
:1011FC00704700BF00ED00E080B483B000AF034641
:10120C00FB7197F90730002B0BDBFB7903F01F0206
:10121C00064997F907305B09012000FA02F241F800
:10122C00232000BF0C37BD4680BC704700E100E0B6
:10123C0080B483B000AF03463960FB7197F9073077
:10124C00002B0ADB3B68DAB20C4997F90730120124
:10125C00D2B20B4483F800230AE03B68DAB20849A7
:10126C00FB7903F00F03043B1201D2B20B441A7644
:10127C0000BF0C37BD4680BC704700BF00E100E0EA
:10128C0000ED00E080B489B000AFF860B9607A601E
:10129C00FB6803F00703FB61FB69C3F10703042B35
:1012AC0028BF0423BB61FB690433062B02D9FB69FD
:1012BC00033B00E000237B614FF0FF32BB6902FA75
:1012CC0003F3DA43BB681A407B699A404FF0FF3155
:1012DC007B6901FA03F3D9437B680B40134318462F
:1012EC002437BD4680BC704780B582B000AF7860B3
:1012FC007B68013BB3F1807F01D301230FE00A4AE5
:10130C007B68013B53600F214FF0FF30FFF790FFDC
:10131C00054B00229A60044B07221A6000231846E2
:10132C000837BD4680BD00BF10E000E080B582B03C
:10133C0000AF78607868FFF72DFF00BF0837BD4617
:10134C0080BD80B586B000AF0346B9607A60FB7390
:10135C0000237B61FFF742FF78617A68B96878698E
:10136C00FFF790FF024697F90F3011461846FFF72A
:10137C005FFF00BF1837BD4680BD80B582B000AF9F
:10138C000346FB7197F907301846FFF735FF00BF8E
:10139C000837BD4680BD80B582B000AF78607868F4
:1013AC00FFF7A2FF034618460837BD4680BD000074
:1013BC0080B48BB000AF7860396000237B6200236F
:1013CC003B6261E101227B6A02FA03F3FB613B6839
:1013DC001B68FA691340BB61BA69FB699A4240F019
:1013EC0050813B685B68974A93425ED0954A934222
:1013FC0075D8954A934258D0934A93426FD8934AE2
:10140C00934252D0914A934269D8914A93424CD01C
:10141C008F4A934263D88F4A934246D08D4A934267
:10142C005DD8122B2AD8122B59D801A252F823F0CE
:10143C00B714000891140008A3140008E514000860
:10144C00EB140008EB140008EB140008EB14000874
:10145C00EB140008EB140008EB140008EB14000864
:10146C00EB140008EB140008EB140008EB14000854
:10147C00EB14000899140008AD140008764A934246
:10148C0013D02CE03B68DB683B6229E03B68DB68EF
:10149C0004333B6224E03B68DB6808333B621FE0AB
:1014AC003B68DB680C333B621AE03B689B68002BA3
:1014BC0002D104233B6213E03B689B68012B05D1EE
:1014CC0008233B627B68FA691A6109E008233B62D6
:1014DC007B68FA695A6103E000233B6200E000BFBD
:1014EC00BB69FF2B01D87B6801E07B6804337B610F
:1014FC00BB69FF2B02D87B6A9B0002E07B6A083B2E
:10150C009B003B617B691A680F213B6901FA03F36D
:10151C00DB431A40396A3B6901FA03F31A437B69CE
:10152C001A603B685B6803F08053002B00F0A980C5
:10153C004A4B9B69494A43F001039361474B9B69B2
:10154C0003F00103BB60BB68454A7B6A9B0802330E
:10155C0052F82330FB607B6A03F003039B000F22DD
:10156C0002FA03F3DB43FA681340FB607B683D4AE5
:10157C0093420DD07B683C4A934207D07B683B4A30
:10158C00934201D1022304E0032302E0012300E093
:10159C0000237A6A02F0030292009340FA68134324
:1015AC00FB602F497B6A9B080233FA6841F82320C1
:1015BC003B685B6803F48013002B06D02C4B9A68B5
:1015CC002B49BB6913438B6006E0294B9A68BB69B6
:1015DC00DB43274913408B603B685B6803F40013C3
:1015EC00002B06D0224BDA682149BB691343CB6030
:1015FC0006E01F4BDA68BB69DB431D491340CB6027
:10160C003B685B6803F40033002B06D0184B5A6818
:10161C001749BB6913434B6006E0154B5A68BB690D
:10162C00DB43134913404B603B685B6803F4803326
:10163C00002B1FD00E4B1A680D49BB6913430B606E
:10164C001FE000BF0000321000003110000022101B
:10165C0000002110000012100000111000100240B8
:10166C000000014000080140000C01400010014046
:10167C00000401400B4B1A68BB69DB43094913405A
:10168C000B607B6A01337B623B681A687B6A22FAC7
:10169C0003F3002B7FF496AE00BF00BF2C37BD4682
:1016AC0080BC70470004014080B483B000AF786008
:1016BC000B467B8013467B707B78002B03D07A889B
:1016CC007B681A6103E07B881A047B681A6100BF8F
:1016DC000C37BD4680BC704780B586B000AF7860D3
:1016EC007B68002B01D1012372E27B681B6803F03D
:1016FC000103002B00F08780924B5B6803F00C0316
:10170C00042B0CD08F4B5B6803F00C03082B12D10D
:10171C008C4B5B6803F48033B3F5803F0BD1894B62
:10172C001B6803F40033002B6CD07B685B68002BC8
:10173C0068D101234CE27B685B68B3F5803F06D12E
:10174C00804B1B687F4A43F4803313602EE07B6828
:10175C005B68002B0CD17B4B1B687A4A23F48033DB
:10176C001360784B1B68774A23F4802313601DE0C9
:10177C007B685B68B3F5A02F0CD1724B1B68714A68
:10178C0043F4802313606F4B1B686E4A43F4803321
:10179C0013600BE06B4B1B686A4A23F480331360B5
:1017AC00684B1B68674A23F4802313607B685B6873
:1017BC00002B13D0FFF7C0FC386108E0FFF7BCFC2E
:1017CC0002463B69D31A642B01D9032300E25D4B1B
:1017DC001B6803F40033002BF0D014E0FFF7ACFCD3
:1017EC00386108E0FFF7A8FC02463B69D31A642B6A
:1017FC0001D90323ECE1534B1B6803F40033002B9A
:10180C00F0D100E000BF7B681B6803F00203002BE3
:10181C0063D04C4B5B6803F00C03002B0BD0494B93
:10182C005B6803F00C03082B1CD1464B5B6803F47C
:10183C008033002B16D1434B1B6803F00203002BA3
:10184C0005D07B681B69012B01D00123C0E13D4B06
:10185C001B6823F0F8027B685B69DB003949134392
:10186C000B603AE07B681B69002B20D0364B0122C1
:10187C001A60FFF761FC386108E0FFF75DFC024677
:10188C003B69D31A022B01D90323A1E12D4B1B6811
:10189C0003F00203002BF0D02A4B1B6823F0F80254
:1018AC007B685B69DB00274913430B6015E0264B13
:1018BC0000221A60FFF740FC386108E0FFF73CFC9F
:1018CC0002463B69D31A022B01D9032380E11D4B3D
:1018DC001B6803F00203002BF0D17B681B6803F03C
:1018EC000803002B3AD07B689B69002B19D0174B4F
:1018FC0001221A60FFF720FC386108E0FFF71CFC9E
:10190C0002463B69D31A022B01D9032360E10D4B2C
:10191C005B6A03F00203002BF0D0012000F09CFA6C
:10192C001CE00A4B00221A60FFF706FC38610FE03E
:10193C00FFF702FC02463B69D31A022B08D903239A
:10194C0046E100BF001002400000424280044242C7
:10195C00924B5B6A03F00203002BE9D17B681B6896
:10196C0003F00403002B00F0A6800023FB758B4BC7
:10197C00DB6903F08053002B0DD1884BDB69874A60
:10198C0043F08053D361854BDB6903F08053BB601C
:10199C00BB680123FB75824B1B6803F48073002B1F
:1019AC0018D17F4B1B687E4A43F480731360FFF79A
:1019BC00C3FB386108E0FFF7BFFB02463B69D31A53
:1019CC00642B01D9032303E1754B1B6803F480736B
:1019DC00002BF0D07B68DB68012B06D16F4B1B6AA8
:1019EC006E4A43F0010313622DE07B68DB68002B29
:1019FC000CD16A4B1B6A694A23F001031362674BD3
:101A0C001B6A664A23F0040313621CE07B68DB68E4
:101A1C00052B0CD1614B1B6A604A43F00403136223
:101A2C005E4B1B6A5D4A43F0010313620BE05B4B98
:101A3C001B6A5A4A23F001031362584B1B6A574A1C
:101A4C0023F0040313627B68DB68002B15D0FFF7CF
:101A5C0073FB38610AE0FFF76FFB02463B69D31A50
:101A6C0041F28832934201D90323B1E04B4B1B6AFC
:101A7C0003F00203002BEED014E0FFF75DFB38619E
:101A8C000AE0FFF759FB02463B69D31A41F2883250
:101A9C00934201D903239BE0404B1B6A03F00203E2
:101AAC00002BEED1FB7D012B05D13C4BDB693B4A76
:101ABC0023F08053D3617B68DB69002B00F08780B7
:101ACC00364B5B6803F00C03082B61D07B68DB6939
:101ADC00022B46D1334B00221A60FFF72DFB3861E5
:101AEC0008E0FFF729FB02463B69D31A022B01D908
:101AFC0003236DE0294B1B6803F00073002BF0D11E
:101B0C007B681B6AB3F5803F08D1244B5B6823F4D8
:101B1C0000327B689B68214913434B601F4B5B6809
:101B2C0023F474127B68196A7B685B6A0B431B494C
:101B3C0013434B601B4B01221A60FFF7FDFA38610F
:101B4C0008E0FFF7F9FA02463B69D31A022B01D9D8
:101B5C0003233DE0114B1B6803F00073002BF0D006
:101B6C0035E0104B00221A60FFF7E6FA386108E006
:101B7C00FFF7E2FA02463B69D31A022B01D9032381
:101B8C0026E0064B1B6803F00073002BF0D11EE01F
:101B9C007B68DB69012B07D1012319E0001002409F
:101BAC0000700040600042420B4B5B68FB60FB68BE
:101BBC0003F480327B681B6A9A4206D1FB6803F4FB
:101BCC0070127B685B6A9A4201D0012300E000230B
:101BDC0018461837BD4680BD0010024080B584B051
:101BEC0000AF786039607B68002B01D10123D0E015
:101BFC006A4B1B6803F007033A689A4210D9674B8B
:101C0C001B6823F0070265493B6813430B60634B69
:101C1C001B6803F007033A689A4201D00123B8E02D
:101C2C007B681B6803F00203002B20D07B681B68C9
:101C3C0003F00403002B05D0594B5B68584A43F45E
:101C4C00E06353607B681B6803F00803002B05D02E
:101C5C00534B5B68524A43F460535360504B5B6880
:101C6C0023F0F0027B689B684D4913434B607B6803
:101C7C001B6803F00103002B40D07B685B68012BD1
:101C8C0007D1474B1B6803F40033002B15D10123FC
:101C9C007FE07B685B68022B07D1414B1B6803F02C
:101CAC000073002B09D1012373E03D4B1B6803F03B
:101CBC000203002B01D101236BE0394B5B6823F04D
:101CCC0003027B685B68364913434B60FFF734FAB9
:101CDC00F8600AE0FFF730FA0246FB68D31A41F2CB
:101CEC008832934201D9032353E02D4B5B6803F0F8
:101CFC000C027B685B689B009A42EBD1274B1B68FC
:101D0C0003F007033A689A4210D2244B1B6823F065
:101D1C00070222493B6813430B60204B1B6803F0FE
:101D2C0007033A689A4201D0012332E07B681B68B2
:101D3C0003F00403002B08D0194B5B6823F4E0621A
:101D4C007B68DB68164913434B607B681B6803F0A8
:101D5C000803002B09D0124B5B6823F460527B689C
:101D6C001B69DB000E4913434B6000F021F802465F
:101D7C000B4B5B681B0903F00F030A49CB5C22FA7F
:101D8C0003F3094A1360094B1B681846FFF792F9D5
:101D9C00002318461037BD4680BD00BF002002400E
:101DAC0000100240BC360008000000200400002097
:101DBC0080B487B000AF0023FB600023BB6000231E
:101DCC007B6100237B6000233B611E4B5B68FB60E7
:101DDC00FB6803F00C03042B02D0082B03D027E084
:101DEC00194B3B6127E0FB689B0C03F00F03174A70
:101DFC00D35C7B60FB6803F48033002B10D0114B59
:101E0C005B685B0C03F00103114AD35CBB607B681D
:101E1C000D4A03FB02F2BB68B2FBF3F37B6104E0F7
:101E2C007B680C4A02FB03F37B617B693B6102E03C
:101E3C00054B3B6100BF3B6918461C37BD4680BC57
:101E4C00704700BF0010024000127A00CC36000828
:101E5C00DC36000800093D0080B485B000AF786026
:101E6C000A4B1B680A4AA2FB03235B0A7A6802FB33
:101E7C0003F3FB6000BFFB685A1EFA60002BF9D11C
:101E8C0000BF00BF1437BD4680BC70470000002067
:101E9C00D34D621080B582B000AF78607B68002BA8
:101EAC0001D1012341E07B6893F83D30DBB2002B7C
:101EBC0006D17B68002283F83C207868FFF70AF88B
:101ECC007B68022283F83D207B681A687B680433A8
:101EDC001946104600F0A4FC7B68012283F84620CA
:101EEC007B68012283F83E207B68012283F83F2027
:101EFC007B68012283F840207B68012283F8412013
:101F0C007B68012283F842207B68012283F84320FE
:101F1C007B68012283F844207B68012283F84520EA
:101F2C007B68012283F83D20002318460837BD4604
:101F3C0080BD000080B485B000AF78607B6893F8FA
:101F4C003D30DBB2012B01D0012335E07B6802224E
:101F5C0083F83D207B681B68DA687B681B6842F05D
:101F6C000102DA607B681B68164A934209D07B68D1
:101F7C001B68B3F1804F04D07B681B68124A9342F4
:101F8C0011D17B681B689B6803F00703FB60FB683F
:101F9C00062B10D07B681B681A687B681B6842F0A4
:101FAC0001021A6007E07B681B681A687B681B6873
:101FBC0042F001021A60002318461437BD4680BC5B
:101FCC00704700BF002C01400004004080B582B077
:101FDC0000AF78607B68002B01D1012341E07B6866
:101FEC0093F83D30DBB2002B06D17B68002283F8DE
:101FFC003C20786800F039F87B68022283F83D2099
:10200C007B681A687B6804331946104600F008FC9C
:10201C007B68012283F846207B68012283F83E20EE
:10202C007B68012283F83F207B68012283F84020E3
:10203C007B68012283F841207B68012283F84220CF
:10204C007B68012283F843207B68012283F84420BB
:10205C007B68012283F845207B68012283F83D20B0
:10206C00002318460837BD4680BD80B483B000AF4E
:10207C00786000BF0C37BD4680BC704780B584B01B
:10208C0000AF786039600023FB733B68002B04D1F0
:10209C007B6893F83E30DBB213E03B68042B04D131
:1020AC007B6893F83F30DBB20BE03B68082B04D124
:1020BC007B6893F84030DBB203E07B6893F84130E7
:1020CC00DBB2BB733B68002B04D17B6893F84230C6
:1020DC00DBB213E03B68042B04D17B6893F84330EC
:1020EC00DBB20BE03B68082B04D17B6893F84430DF
:1020FC00DBB203E07B6893F84530DBB27B73BB7BD0
:10210C00012B02D17B7B012B01D00123B3E03B6877
:10211C00002B04D17B68022283F83E2013E03B683D
:10212C00042B04D17B68022283F83F200BE03B6830
:10213C00082B04D17B68022283F8402003E07B68E3
:10214C00022283F841203B68002B04D17B680222D9
:10215C0083F8422013E03B68042B04D17B680222F5
:10216C0083F843200BE03B68082B04D17B680222E8
:10217C0083F8442003E07B68022283F845203B6807
:10218C000C2B41D801A252F823F000BFCD2100083E
:10219C00152200081522000815220008DF2100086E
:1021AC00152200081522000815220008F12100084C
:1021BC001522000815220008152200080322000829
:1021CC007B681B68DA687B681B6842F00202DA6085
:1021DC001DE07B681B68DA687B681B6842F00402B0
:1021EC00DA6014E07B681B68DA687B681B6842F075
:1021FC000802DA600BE07B681B68DA687B681B6896
:10220C0042F01002DA6002E00123FB7300BFFB7B9B
:10221C00002B2FD17B681B6801223968184600F00F
:10222C00F4FC7B681B68164A934209D07B681B68D8
:10223C00B3F1804F04D07B681B68124A934211D1D2
:10224C007B681B689B6803F00703BB60BB68062BAD
:10225C0010D07B681B681A687B681B6842F001020F
:10226C001A6007E07B681B681A687B681B6842F081
:10227C0001021A60FB7B18461037BD4680BD00BFBB
:10228C00002C01400004004080B582B000AF7860A3
:10229C007B681B681B6903F00203022B22D17B684D
:1022AC001B68DB6803F00203022B1BD17B681B68E5
:1022BC006FF002021A617B6801221A777B681B6837
:1022CC009B6903F00303002B03D07868FEF78AFDAB
:1022DC0005E0786800F088FA786800F08EFA7B6880
:1022EC0000221A777B681B681B6903F00403042B1C
:1022FC0022D17B681B68DB6803F00403042B1BD121
:10230C007B681B686FF004021A617B6802221A77E3
:10231C007B681B689B6903F44073002B03D07868BF
:10232C00FEF760FD05E0786800F05EFA786800F072
:10233C0064FA7B6800221A777B681B681B6903F0C0
:10234C000803082B22D17B681B68DB6803F00803A9
:10235C00082B1BD17B681B686FF008021A617B6825
:10236C0004221A777B681B68DB6903F00303002BDC
:10237C0003D07868FEF736FD05E0786800F034FA93
:10238C00786800F03AFA7B6800221A777B681B6841
:10239C001B6903F01003102B22D17B681B68DB68D0
:1023AC0003F01003102B1BD17B681B686FF010021D
:1023BC001A617B6808221A777B681B68DB6903F457
:1023CC004073002B03D07868FEF70CFD05E07868AD
:1023DC0000F00AFA786800F010FA7B6800221A778D
:1023EC007B681B681B6903F00103012B0ED17B6812
:1023FC001B68DB6803F00103012B07D17B681B68AA
:10240C006FF001021A617868FEF7DCFC7B681B68D0
:10241C001B6903F08003802B0ED17B681B68DB6883
:10242C0003F08003802B07D17B681B686FF0800260
:10243C001A61786800F06FFC7B681B681B6903F0FD
:10244C004003402B0ED17B681B68DB6803F0400314
:10245C00402B07D17B681B686FF040021A617868CB
:10246C0000F0D4F97B681B681B6903F02003202B58
:10247C000ED17B681B68DB6803F02003202B07D18F
:10248C007B681B686FF020021A61786800F03AFCD8
:10249C0000BF0837BD4680BD80B586B000AFF86080
:1024AC00B9607A600023FB75FB6893F83C30012B14
:1024BC0001D1022388E0FB68012283F83C207B6871
:1024CC00002B1BD1FB681868BB681968BB685A687D
:1024DC00BB68DB6800F0FCF9FB681B689A69FB6859
:1024EC001B6822F00C029A61FB681B689969BB6837
:1024FC009A68FB681B680A439A6160E07B68042B4E
:10250C001CD1FB681868BB681968BB685A68BB6843
:10251C00DB6800F05FFAFB681B689A69FB681B6854
:10252C0022F440629A61FB681B689969BB689B68DE
:10253C001A02FB681B680A439A6140E07B68082B0F
:10254C001BD1FB681868BB681968BB685A68BB6804
:10255C00DB6800F0AAFAFB681B68DA69FB681B6889
:10256C0022F00C02DA61FB681B68D969BB689A68B7
:10257C00FB681B680A43DA6121E07B680C2B1CD1D9
:10258C00FB681868BB681968BB685A68BB68DB686D
:10259C0000F0C6FAFB681B68DA69FB681B6822F45A
:1025AC004062DA61FB681B68D969BB689B681A02D8
:1025BC00FB681B680A43DA6101E00123FB75FB68C9
:1025CC00002283F83C20FB7D18461837BD4680BDA1
:1025DC0080B584B000AF786039600023FB737B68F2
:1025EC0093F83C30012B01D10223B4E07B6801222B
:1025FC0083F83C207B68022283F83D207B681B68B3
:10260C009B68BB60BB6823F07703BB60BB6823F49B
:10261C007F43BB607B681B68BA689A603B681B6829
:10262C00B3F5005F3ED0B3F5005F00F28780B3F5E1
:10263C00805F00F08680B3F5805F7FD8702B1AD056
:10264C00702B7BD8602B50D0602B77D8502B3CD084
:10265C00502B73D8402B58D0402B6FD8302B64D0D4
:10266C00302B6BD8202B60D0202B67D8002B5CD064
:10267C00102B5AD062E07B6818683B6899683B68FD
:10268C005A683B68DB6800F0A1FA7B681B689B68A2
:10269C00BB60BB6843F07703BB607B681B68BA68A0
:1026AC009A604FE07B6818683B6899683B685A6889
:1026BC003B68DB6800F08AFA7B681B689A687B6869
:1026CC001B6842F480429A603CE07B6818683B6867
:1026DC0059683B68DB681A4600F04EF97B681B684A
:1026EC005021184600F058FA2CE07B6818683B68BB
:1026FC0059683B68DB681A4600F0A8F97B681B68D0
:10270C006021184600F048FA1CE07B6818683B68AA
:10271C0059683B68DB681A4600F02EF97B681B6829
:10272C004021184600F038FA0CE07B681A683B68C8
:10273C001B681946104600F02FFA03E00123FB73C7
:10274C0000E000BF7B68012283F83D207B680022FB
:10275C0083F83C20FB7B18461037BD4680BD00003B
:10276C0080B485B000AF786039600023FB603B68B3
:10277C000C2B31D801A252F823F000BFBD27000862
:10278C00E5270008E5270008E5270008C72700080B
:10279C00E5270008E5270008E5270008D1270008F1
:1027AC00E5270008E5270008E5270008DB270008D7
:1027BC007B681B685B6BFB600FE07B681B689B6B2B
:1027CC00FB600AE07B681B68DB6BFB6005E07B68E9
:1027DC001B681B6CFB6000E000BFFB6818461437DD
:1027EC00BD4680BC704700BF80B483B000AF78603A
:1027FC0000BF0C37BD4680BC704780B483B000AFBF
:10280C00786000BF0C37BD4680BC704780B483B085
:10281C0000AF786000BF0C37BD4680BC704700002D
:10282C0080B485B000AF786039607B681B68FB6052
:10283C007B68254A934207D07B68B3F1804F03D065
:10284C007B68224A934208D1FB6823F07003FB603B
:10285C003B685B68FA681343FB607B681A4A9342D7
:10286C0007D07B68B3F1804F03D07B68174A934243
:10287C0008D1FB6823F44073FB603B68DB68FA68A3
:10288C001343FB60FB6823F080023B685B691343D6
:10289C00FB607B68FA681A603B689A687B68DA624E
:1028AC003B681A687B689A627B68074A934203D13B
:1028BC003B681A697B681A637B6801225A6100BF06
:1028CC001437BD4680BC7047002C0140000400400A
:1028DC0080B487B000AFF860B9607A603B60FB6889
:1028EC001B6A3B61FB681B6A23F00102FB681A62DE
:1028FC00FB689B697B61FB681D4A934207D0FB68B0
:10290C00B3F1804F03D0FB681A4A934201D10123E3
:10291C0000E00023002B08D07B6923F003037B61CC
:10292C007A697B6813437B6103E07B6943F00103A5
:10293C007B617B6923F0F0037B613B681B01DBB29D
:10294C007A6913437B613B6923F00A033B61BB68E3
:10295C0003F00A033A6913433B61FB687A699A6195
:10296C00FB683A691A6200BF1C37BD4680BC7047D1
:10297C00002C01400004004080B487B000AFF86028
:10298C00B9607A60FB681B6A7B61FB681B6A23F089
:10299C000102FB681A62FB689B693B613B6923F08F
:1029AC00F0033B617B681B013A6913433B617B6914
:1029BC0023F00A037B617A69BB6813437B61FB6874
:1029CC003A699A61FB687A691A6200BF1C37BD4686
:1029DC0080BC704780B487B000AFF860B9607A6093
:1029EC003B60FB681B6A7B61FB681B6A23F010026F
:1029FC00FB681A62FB689B693B613B6923F440737B
:102A0C003B617B681B023A6913433B613B6923F4CE
:102A1C0070433B613B681B039BB23A6913433B61B8
:102A2C007B6923F0A0037B61BB681B0103F0A0034F
:102A3C007A6913437B61FB683A699A61FB687A692E
:102A4C001A6200BF1C37BD4680BC704780B487B08B
:102A5C0000AFF860B9607A60FB681B6A7B61FB6849
:102A6C001B6A23F01002FB681A62FB689B693B61CE
:102A7C003B6923F470433B617B681B033A69134346
:102A8C003B617B6923F0A0037B61BB681B017A6906
:102A9C0013437B61FB683A699A61FB687A691A6235
:102AAC0000BF1C37BD4680BC704780B487B000AFF8
:102ABC00F860B9607A603B60FB681B6A7B61FB68FD
:102ACC001B6A23F48072FB681A62FB68DB693B614A
:102ADC003B6923F003033B613A697B6813433B6119
:102AEC003B6923F0F0033B613B681B01DBB23A69A5
:102AFC0013433B617B6923F400737B61BB681B024E
:102B0C0003F400737A6913437B61FB683A69DA61F9
:102B1C00FB687A691A6200BF1C37BD4680BC7047DF
:102B2C0080B487B000AFF860B9607A603B60FB6836
:102B3C001B6A7B61FB681B6A23F48052FB681A6278
:102B4C00FB68DB693B613B6923F440733B617B6849
:102B5C001B023A6913433B613B6923F470433B61AD
:102B6C003B681B039BB23A6913433B617B6923F4BB
:102B7C0000537B61BB681B0303F400537A69134356
:102B8C007B61FB683A69DA61FB687A691A6200BF9B
:102B9C001C37BD4680BC704780B485B000AF7860F0
:102BAC0039607B689B68FB60FB6823F07003FB60FB
:102BBC003A68FB68134343F00703FB607B68FA68D1
:102BCC009A6000BF1437BD4680BC704780B487B094
:102BDC0000AFF860B9607A603B60FB689B687B6112
:102BEC007B6923F47F437B613B681A027B681A4341
:102BFC00BB6813437A6913437B61FB687A699A60FB
:102C0C0000BF1C37BD4680BC704780B487B000AF96
:102C1C00F860B9607A60BB6803F01F03012202FA06
:102C2C0003F37B61FB681A6A7B69DB431A40FB6820
:102C3C001A62FB681A6ABB6803F01F03796801FA11
:102C4C0003F31A43FB681A6200BF1C37BD4680BCF5
:102C5C007047000080B485B000AF786039607B6845
:102C6C0093F83C30012B01D1022341E07B68012217
:102C7C0083F83C207B68022283F83D207B681B682C
:102C8C005B68FB607B681B689B68BB60FB6823F020
:102C9C007003FB603B681B68FA681343FB607B683E
:102CAC001B68FA685A607B681B68144A934209D007
:102CBC007B681B68B3F1804F04D07B681B68104A9B
:102CCC0093420CD1BB6823F08003BB603B685B680C
:102CDC00BA681343BB607B681B68BA689A607B68F0
:102CEC00012283F83D207B68002283F83C200023DE
:102CFC0018461437BD4680BC704700BF002C0140FD
:102D0C000004004080B483B000AF786000BF0C3783
:102D1C00BD4680BC704780B483B000AF786000BF04
:102D2C000C37BD4680BC7047014B1868704700BF1C
:102D3C000C00002070B500260C4D0D4C641BA4102B
:102D4C00A64209D100F09CFC00260A4D0A4C641BDB
:102D5C00A410A64205D170BD55F8043B9847013626
:102D6C00EEE755F8043B98470136F2E714370008B4
:102D7C0014370008143700081837000803460244BB
:102D8C00934200D1704703F8011BF9E70EB46FF0C2
:102D9C00004100B59CB01DAB0290069007910491C8
:102DAC000848094953F8042B0591006802A90193BE
:102DBC0000F068F80022029B1A701CB05DF804EB5E
:102DCC0003B070470C0000200802FFFF2DE9F0470C
:102DDC008E6882469E420C4690461F4638D88A8999
:102DEC0012F4906F32D0256809690133A5EB010903
:102DFC0065694B4405EB450505EBD5756D109D429A
:102E0C0038BF1D46530531D5294600F06FFB0646E9
:102E1C0050B90C234FF0FF30CAF80030A38943F0AF
:102E2C004003A381BDE8F0874A46216900F0CEFA41
:102E3C00A38923F4906343F08003A38126614E445D
:102E4C0026603E466561A5EB0905A560BE4200D92A
:102E5C003E4632464146206800F0C6FAA368002080
:102E6C009B1BA360236833442360DBE72A4600F0F6
:102E7C00B1FB06460028E1D15046216900F0CEFA9C
:102E8C00C7E700002DE9F04F98468B8907461B06D3
:102E9C000D4614469DB00ED50B6963B9402100F068
:102EAC0025FB2860286120B90C233B604FF0FF30D4
:102EBC00D1E040236B610023099320238DF8293046
:102ECC0030234FF00109CDF80C80DFF8A4818DF888
:102EDC002A3023469A4613F8012B0AB1252AF9D138
:102EEC00BAEB040B0BD05B46224629463846FFF75B
:102EFC006DFF013000F0AA80099A5A4409929AF8A1
:102F0C000030002B00F0A28000234FF0FF32CDE9FF
:102F1C0005230AF1010A049307938DF853301A9391
:102F2C005446052214F8011B514800F041FA049A4A
:102F3C00D8B9D00644BF20238DF85330110744BFB5
:102F4C002B238DF853309AF800302A2B15D0544689
:102F5C0000204FF00A0C079A214611F8013B303B38
:102F6C00092B4ED9B0B1079214E0A0EB080309FA73
:102F7C0003F31343A2460493D2E7039B191D1B686A
:102F8C000391002BBBBF5B4242F0020207930793F5
:102F9C00B8BF049223782E2B0CD163782A2B35D111
:102FAC00039B02341A1D1B680392002BB8BF4FF011
:102FBC00FF330593DFF8BCA003225046217800F0C4
:102FCC00F7F940B14023A0EB0A0003FA00F0049B90
:102FDC0001340343049314F8011B062226488DF890
:102FEC00281000F0E5F9002838D0244B1BBB039BBC
:102FFC00073323F0070308330393099B33440993E6
:10300C0067E70C4601200CFB0232A5E700234FF0CA
:10301C000A0C194601340593204610F8012B303A5E
:10302C00092A03D9002BC5D00591C3E70446012317
:10303C000CFB0121F0E703AB00932A463846104BFA
:10304C0004A9AFF30080421C0646D6D1AB895B06BF
:10305C003FF52CAF09981DB0BDE8F08F03AB009382
:10306C002A463846064B04A900F07CF8EBE700BF73
:10307C00DE360008E4360008E836000800000000E0
:10308C00D92D00082DE9F047164699468A680B6938
:10309C0007469342B8BF1346336091F843200C4661
:1030AC00DDF820800AB1013333602368990642BFF2
:1030BC00336802333360256815F0060506D104F138
:1030CC00190AE36832689B1AAB4228DC94F8432057
:1030DC00131E226818BF012392062DD44946384688
:1030EC0004F14302C047013020D02368E56803F0A7
:1030FC000603042B18BF002532684FF00006A368A6
:10310C0008BFAD1A226908BF25EAE5759342C4BF12
:10311C009B1AED181A34B5421AD1002008E001238D
:10312C00524649463846C047013003D14FF0FF3074
:10313C00BDE8F0870135C4E73020E11881F8430081
:10314C005A1C94F845102244023382F84310C5E708
:10315C000123224649463846C0470130E6D00136A5
:10316C00D9E700002DE9FF470F7E9146782F804666
:10317C000C469A460C9D01F1430207D8622F0AD8DF
:10318C00002F00F0D980582F00F0A48004F14205E4
:10319C0084F842703AE0A7F16303152BF6D801A12D
:1031AC0051F823F0093200081D320008993100084B
:1031BC009931000899310008993100081D32000836
:1031CC0099310008993100089931000899310008AB
:1031DC002B3300084D3200080D33000899310008DC
:1031EC00993100084D330008993100084D32000820
:1031FC009931000899310008153300082B681A1D05
:10320C001B682A6004F1420584F842300123A4E0D3
:10321C0020682968060601F104030AD50E682B60A4
:10322C00002E03DA2D23764284F843300A235E48BD
:10323C0019E00E6810F0400F2B6018BF36B2EFE7A4
:10324C002B682068191D2960010601D51E6802E053
:10325C004606FBD51E886F2F0CBF08230A23524845
:10326C00002184F843106568002DA8BF2168A56073
:10327C00A4BF21F0040121600EB9002D4DD01546DC
:10328C00B6FBF3F103FB1167C75D05F8017D37460B
:10329C00BB420E46F4D9082B0BD12368DE0708D5A8
:1032AC00236961689942DEBF302305F8013C05F1C2
:1032BC00FF35521B22614B4621464046CDF800A0FB
:1032CC0003AAFFF7DFFE01304CD14FF0FF3004B002
:1032DC00BDE8F087344881F845702968236851F8B7
:1032EC00046B29601D0614D5DF0744BF43F020038F
:1032FC0023601EB9236823F0200323601023AFE75B
:10330C00236843F0200323607823284884F8453051
:10331C00E3E7590648BFB6B2E6E71546BBE72B68AC
:10332C002668181D6169286035061B6801D519606F
:10333C0002E07006FBD51980002315462361BAE71D
:10334C002B6800211A1D2A601D686268284600F04F
:10335C002FF808B1401B606063682361002384F878
:10336C004330A8E72A46494640462369D0470130F6
:10337C00ABD023689B0713D4E068039B9842B8BF7B
:10338C001846A4E70123324649464046D04701304F
:10339C009BD00135E36803995B1AAB42F2DCEBE797
:1033AC00002504F11906F5E7EF3600080037000890
:1033BC00034610B5C9B202449342184601D100200D
:1033CC0003E0047801338C42F6D110BD0A449142DB
:1033DC0000F1FF3300D1704710B511F8014B914249
:1033EC0003F8014FF9D110BD884210B501EB02046E
:1033FC0002D98442234607D8431EA14208D011F8B3
:10340C00012B03F8012FF8E7014602448A4200D150
:10341C0010BD13F8014D02F8014DF7E738B505461C
:10342C00002940D051F8043C0C1F002BB8BFE41805
:10343C0000F010F91C4A136833B963601460284615
:10344C00BDE8384000F00CB9A34208D92068211817
:10345C008B4201BF19685B6809182160EDE71A46B9
:10346C005B680BB1A342FAD911685018A0420BD17A
:10347C0020680144501883421160E0D118685B68E1
:10348C00014411605360DAE702D90C232B60D6E7B4
:10349C00206821188B4201BF19685B6809182160EC
:1034AC0063605460CBE738BD1001002070B50E4E40
:1034BC000C463168054611B900F0BCF83060214665
:1034CC00284600F0B7F8431C0AD0C41C24F00304AF
:1034DC00A04207D0211A284600F0ACF8013001D1E7
:1034EC004FF0FF34204670BD140100202DE9F0414F
:1034FC00CD1C25F0030508350C2D38BF0C25002DEF
:10350C00074601DBA94205D90C2300263B60304657
:10351C00BDE8F0812E4E00F09DF833681C4634BB9C
:10352C0029463846FFF7C2FF431C04464DD1346888
:10353C002646002E40D123683146384604EB03085A
:10354C0000F078F880453AD1216803356D1A25F0E2
:10355C00030508350C2D38BF0C2538462946FFF7D6
:10356C00A5FF01302BD023682B4423600EE022688A
:10357C00521B1ED40B2A16D96119A342256018BF01
:10358C005960636808BF316062514B60384604F182
:10359C000B0600F065F826F00706231DF21AB6D0CC
:1035AC009B1BA350B3E76268A3420CBF32605A6006
:1035BC00ECE723466468B2E734467668B9E70C2337
:1035CC0038463B6000F04CF8A1E72560DEE700BF11
:1035DC00100100202DE9F041804614460E4621B919
:1035EC001146BDE8F041FFF781BF2AB9FFF716FF7E
:1035FC0025462846BDE8F08100F038F8844207469D
:10360C0002D8B4EB500F12D821464046FFF76EFF9C
:10361C0005460028EDD0BC422246314628BF3A462A
:10362C00FFF7D4FE31464046FFF7F8FEE1E735469A
:10363C00DFE7000038B50023054D044608462B6033
:10364C00FDF7C0FC431C02D12B6803B1236038BDCD
:10365C0018010020014800F011B800BF1C01002027
:10366C00014800F00CB800BF1C01002051F8043CCC
:10367C00181F002BBCBF0B58C01870477047704701
:10368C00F8B500BFF8BC08BC9E467047F8B500BF43
:08369C00F8BC08BC9E46704713
:1036A400667265713D257500647574796379636C20
:1036B400653D2575000000000000000000000000CA
:1036C40001020304060708090203040506070809A2
:1036D4000A0B0C0D0E0F10100102232D302B2000AD
:1036E400686C4C00656667454647003031323334B8
:1036F4003536373839414243444546003031323358
:103704003435363738396162636465660000000019
:043714003101000877
:043718000D01000897
:10371C000024F40010000000010000001000002044
:10372C00000000000000000000000000000000008D
:10373C00000000000000000000000000000000007D
:10374C00000000000000000000000000000000006D
:10375C00000000000000000000000000000000005D
:10376C00000000000000000000000000000000004D
:10377C00000000000000000000000000000000003D
:040000050800104996
:00000001FF
