:020000040800F2
:100000000080012035120008BD110008C31100084E
:10001000C9110008CF110008D51100080000000028
:10002000000000000000000000000000DB110008DC
:10003000E911000800000000F7110008051200088F
:100040008512000885120008851200088512000834
:100050008512000885120008851200088512000824
:100060008512000885120008851200088512000814
:100070008512000885120008851200088512000804
:100080008512000885120008851200080000000093
:1000900000000000000000000000000085120008C1
:1000A00085120008851200088512000885120008D4
:1000B00085120008851200088512000885120008C4
:1000C00085120008851200088512000885120008B4
:1000D0008512000885120008851200080000000043
:1000E0008512000885120008851200080000000033
:1000F0000000000000000000000000008512000861
:100100000000000085120008851200088512000812
:1001100000000000000000000000000000000000DF
:100120008512000885120008851200088512000853
:100130008512000800000000000000000000000020
:100140000000000000000000000000008512000810
:100150008512000885120008851200088512000823
:100160008512000885120008000000000000000051
:10017000000000000000000000000000000000007F
:1001800000000000851200080000000000000000D0
:0401900085120008CC
:1001940010B5054C237833B9044B13B10448AFF3BD
:1001A40000800123237010BD0C000020000000001B
:1001B400C021000808B5034B1BB103490348AFF342
:1001C400008008BD0000000010000020C0210008CD
:1001D40053B94AB9002908BF00281CBF4FF0FF31AA
:1001E4004FF0FF3000F074B9ADF1080C6DE904CEA6
:1001F40000F006F8DDF804E0DDE9022304B07047FE
:100204002DE9F047089D04468E46002B4DD18A42C5
:10021400944669D9B2FA82F252B101FA02F3C2F1F8
:10022400200120FA01F10CFA02FC41EA030E944089
:100234004FEA1C48210CBEFBF8F61FFA8CF708FBAA
:1002440016E341EA034306FB07F199420AD91CEB82
:10025400030306F1FF3080F01F81994240F21C81B4
:10026400023E63445B1AA4B2B3FBF8F008FB1033FC
:1002740044EA034400FB07F7A7420AD91CEB040431
:1002840000F1FF3380F00A81A74240F20781644401
:10029400023840EA0640E41B00261DB1D440002386
:1002A400C5E900433146BDE8F0878B4209D9002DEA
:1002B40000F0EF800026C5E9000130463146BDE874
:1002C400F087B3FA83F6002E4AD18B4202D38242DE
:1002D40000F2F980841A61EB030301209E46002D8D
:1002E400E0D0C5E9004EDDE702B9FFDEB2FA82F2E2
:1002F400002A40F09280A1EB0C014FEA1C471FFA40
:100304008CFE0126200CB1FBF7F307FB131140EA26
:1003140001410EFB03F0884208D91CEB010103F1F3
:10032400FF3802D2884200F2CB804346091AA4B2B5
:10033400B1FBF7F007FB101144EA01440EFB00FE89
:10034400A64508D91CEB040400F1FF3102D2A645EE
:1003540000F2BB800846A4EB0E0440EA03409CE78D
:10036400C6F12007B34022FA07FC4CEA030C20FA3A
:1003740007F401FA06F31C43F9404FEA1C4900FA5A
:1003840006F3B1FBF9F8200C1FFA8CFE09FB1811D7
:1003940040EA014108FB0EF0884202FA06F20BD94A
:1003A4001CEB010108F1FF3A80F08880884240F29A
:1003B4008580A8F102086144091AA4B2B1FBF9F0DE
:1003C40009FB101144EA014100FB0EFE8E4508D9D9
:1003D4001CEB010100F1FF346CD28E456AD902385E
:1003E400614440EA0840A0FB0294A1EB0E01A14243
:1003F400C846A64656D353D05DB1B3EB080261EBB1
:100404000E0101FA07F722FA06F3F1401F43C5E98A
:10041400007100263146BDE8F087C2F12003D840C0
:100424000CFA02FC21FA03F3914001434FEA1C4702
:100434001FFA8CFEB3FBF7F007FB10360B0C43EAF4
:10044400064300FB0EF69E4204FA02F408D91CEBA4
:10045400030300F1FF382FD29E422DD902386344A2
:100464009B1B89B2B3FBF7F607FB163341EA034142
:1004740006FB0EF38B4208D91CEB010106F1FF3891
:1004840016D28B4214D9023E6144C91A46EA004688
:1004940038E72E46284605E70646E3E61846F8E61A
:1004A4004B45A9D2B9EB020864EB0C0E0138A3E763
:1004B4004646EAE7204694E74046D1E7D0467BE744
:1004C400023B614432E7304609E76444023842E7BC
:1004D400704700BF80B588B000AF0023FB613B1DAF
:1004E40000221A605A609A60DA600023BB6100F04F
:1004F400C9FE00F069FD00F0C7FD00228021BA4862
:1005040001F0D8F901224021B74801F0D3F90122C2
:100514002021B54801F0CEF901221021B24801F0A2
:10052400C9F90121B04801F0ADF90346002B40F0B0
:10053400EB80E5E001228021AB4801F0BBF9002209
:100544001021A94801F0B6F90121A74801F09AF950
:100554000346002B01D10123FB610221A24801F0D3
:1005640091F90346002B01D10423FB6104219E4829
:1005740001F088F90346002B01D10723FB61082110
:10058400994801F07FF90346002B07D1FB69013339
:10059400FB61FB69092B01DD0923FB6101221021A9
:1005A400914801F087F9002220218F4801F082F957
:1005B40001218D4801F066F90346002B01D1022385
:1005C400FB610221884801F05DF90346002B01D14B
:1005D4000523FB610421844801F054F90346002BF0
:1005E40001D10823FB6108217F4801F04BF9034640
:1005F400002B01D10023FB61012220217A4801F064
:1006040059F900224021784801F054F90121764833
:1006140001F038F90346002B01D10323FB610221C9
:10062400714801F02FF90346002B01D10623FB6129
:1006340004216D4801F026F90346002B01D109235A
:10064400FB610821684801F01DF90346002B07D11E
:10065400FB69013BFB61FB69002B01DA0023FB61B1
:1006640001224021604801F025F9002280215E48E2
:1006740001F020F902215C4801F004F90346002B43
:1006840009D1BB699B0020333B44FA6943F81C2C15
:10069400BB690133BB610421534801F0F3F80346FD
:1006A400002B12D100237B6109E0BB699B0020333E
:1006B4003B44002243F81C2C7B6901337B617A693B
:1006C400BB699A42F1DB0023BB610821464801F073
:1006D400D9F80346002B0ED1BB699B0020333B4461
:1006E400002243F81C2CBB69013BBB61BB69002B96
:1006F40001DA0023BB61012280213B4801F0DAF8D2
:10070400BB69032B7FF716AF7B68092B00F2EE80E1
:1007140001A252F823F000BF450700086F07000844
:1007240099070008C3070008F50700081F08000818
:1007340049080008730800089D080008C708000855
:1007440000220121294801F0B5F80022022127489E
:1007540001F0B0F800220421244801F0ABF8002293
:100764000821224801F0A6F8C0E0012201211F4817
:1007740001F0A0F8002202211C4801F09BF800229D
:1007840004211A4801F096F800220821174801F0C4
:1007940091F8ABE000220121144801F08BF801220A
:1007A4000221124801F086F8002204210F4801F0CA
:1007B40081F8002208210D4801F07CF896E001221E
:1007C40001210A4801F076F801220221074801F0CC
:1007D40071F800220421054801F06CF80022082178
:1007E400024801F067F881E0000402400000024082
:1007F40000220121BF4801F05DF800220221BD481A
:1008040001F058F801220421BA4801F053F80022FB
:100814000821B84801F04EF868E001220121B548EA
:1008240001F048F800220221B24801F043F8012205
:100834000421B04801F03EF800220821AD4801F03F
:1008440039F853E000220121AA4801F033F80122CB
:100854000221A84801F02EF801220421A54801F044
:1008640029F800220821A34801F024F83EE00122DF
:100874000121A04801F01EF8012202219D4801F047
:1008840019F8012204219B4801F014F800220821E0
:10089400984801F00FF829E000220121954801F061
:1008A40009F800220221934801F004F800220421EF
:1008B400904800F0FFFF012208218E4800F0FAFF63
:1008C40014E0012201218B4800F0F4FF00220221F0
:1008D400884800F0EFFF00220421864800F0EAFF78
:1008E40001220821834800F0E5FF00BF142000F036
:1008F4003BFD012210217F4800F0DCFF0022202173
:100904007C4800F0D7FF002240217A4800F0D2FF53
:1009140000228021774800F0CDFF00221021754885
:1009240000F0C8FF00222021724800F0C3FF00221B
:100934004021704800F0BEFF002280216D4800F085
:10094400B9FFBB68092B00F2EC8001A252F823F036
:100954007D090008A7090008D1090008FB0900085F
:10096400250A00084F0A0008790A0008A30A0008AB
:10097400CD0A0008FD0A0008002201215D4800F0AC
:1009840099FF002202215B4800F094FF0022042119
:10099400584800F08FFF00220821564800F08AFFD3
:1009A400BFE001220121534800F084FF002202210C
:1009B400504800F07FFF002204214E4800F07AFFE7
:1009C400002208214B4800F075FFAAE00022012113
:1009D400484800F06FFF01220221464800F06AFFF8
:1009E40000220421434800F065FF00220821414809
:1009F40000F060FF95E0012201213E4800F05AFF1B
:100A0400012202213B4800F055FF0022042139480D
:100A140000F050FF00220821364800F04BFF80E030
:100A240000220121334800F045FF00220221314811
:100A340000F040FF012204212E4800F03BFF002279
:100A440008212C4800F036FF6BE0012201212948DF
:100A540000F030FF00220221264800F02BFF012283
:100A64000421244800F026FF00220821214800F038
:100A740021FF56E0002201211E4800F01BFF012245
:100A840002211C4800F016FF01220421194800F03D
:100A940011FF00220821174800F00CFF41E0012259
:100AA4000121144800F006FF01220221114800F040
:100AB40001FF012204210F4800F0FCFE002208215E
:100AC4000C4800F0F7FE2CE000220121094800F058
:100AD400F1FE00220221074800F0ECFE002204216E
:100AE400044800F0E7FE01220821024800F0E2FE7B
:100AF40017E000BF0000024001220121CD4800F0B0
:100B0400D9FE00220221CB4800F0D4FE00220421A9
:100B1400C84800F0CFFE01220821C64800F0CAFEF2
:100B240000BF142000F020FC00221021C14800F076
:100B3400C1FE01222021BF4800F0BCFE002240215A
:100B4400BC4800F0B7FE00228021BA4800F0B2FE93
:100B540000221021B74800F0ADFE00222021B54844
:100B640000F0A8FE00224021B24800F0A3FE0022BB
:100B74008021B04800F09EFEFB68092B00F2EA8059
:100B840001A252F823F000BFB50B0008DF0B0008E8
:100B9400090C0008330C00085D0C0008870C0008E1
:100BA400B10C0008DB0C0008050D00082F0D00082F
:100BB400002201219F4800F07DFE002202219D4871
:100BC40000F078FE002204219A4800F073FE00220F
:100BD4000821984800F06EFEBCE0012201219548EE
:100BE40000F068FE00220221924800F063FE002219
:100BF4000421904800F05EFE002208218D4800F098
:100C040059FEA7E0002201218A4800F053FE012288
:100C14000221884800F04EFE00220421854800F09D
:100C240049FE00220821834800F044FE92E001229C
:100C34000121804800F03EFE012202217D4800F09F
:100C440039FE002204217B4800F034FE00220821F2
:100C5400784800F02FFE7DE000220121754800F065
:100C640029FE00220221734800F024FE01220421FF
:100C7400704800F01FFE002208216E4800F01AFEA2
:100C840068E0012201216B4800F014FE00220221D9
:100C9400684800F00FFE01220421664800F00AFEB5
:100CA40000220821634800F005FE53E000220121E0
:100CB400604800F0FFFD012202215E4800F0FAFDC9
:100CC400012204215B4800F0F5FD00220821594867
:100CD40000F0F0FD3EE001220121564800F0EAFD5B
:100CE40001220221534800F0E5FD0122042151486C
:100CF40000F0E0FD002208214E4800F0DBFD29E071
:100D0400002201214B4800F0D5FD00220221494870
:100D140000F0D0FD00220421464800F0CBFD012262
:100D24000821444800F0C6FD14E001220121414895
:100D340000F0C0FD002202213E4800F0BBFD00226D
:100D440004213C4800F0B6FD01220821394800F096
:100D5400B1FD00BF142000F007FB0022102135482C
:100D640000F0A8FD00222021324800F0A3FD01225A
:100D74004021304800F09EFD002280212D4800F0E3
:100D840099FD002210212B4800F094FD002220211F
:100D9400284800F08FFD00224021264800F08AFDFB
:100DA40000228021234800F085FD3B69092B00F2D5
:100DB400EB8001A252F823F0E50D00080F0E0008A5
:100DC4003D0E0008670E0008910E0008BB0E0008D7
:100DD400E50E00080F0F0008390F0008630F000824
:100DE40000220121134800F065FD00220221114870
:100DF40000F060FD002204210E4800F05BFD00229B
:100E040008210C4800F056FDBEE0012201210948EA
:100E140000F050FD00220221064800F04BFD0022A4
:100E24000421044800F046FD00220821014800F096
:100E340041FDA9E00000024000220121614800F0C8
:100E440039FD012202215F4800F034FD0022042113
:100E54005C4800F02FFD002208215A4800F02AFDCA
:100E640092E001220121574800F024FD01220221D1
:100E7400544800F01FFD00220421524800F01AFDDE
:100E8400002208214F4800F015FD7DE000220121D9
:100E94004C4800F00FFD002202214A4800F00AFDF0
:100EA40001220421474800F005FD0022082145489D
:100EB40000F000FD68E001220121424800F0FAFC44
:100EC400002202213F4800F0F5FC012204213D48A4
:100ED40000F0F0FC002208213A4800F0EBFC53E05B
:100EE40000220121374800F0E5FC012202213548A7
:100EF40000F0E0FC01220421324800F0DBFC002277
:100F04000821304800F0D6FC3EE0012201212D48A2
:100F140000F0D0FC012202212A4800F0CBFC01227F
:100F24000421284800F0C6FC00220821254800F0CE
:100F3400C1FC29E000220121224800F0BBFC002270
:100F44000221204800F0B6FC002204211D4800F0D4
:100F5400B1FC012208211B4800F0ACFC14E0012282
:100F64000121184800F0A6FC00220221154800F0D7
:100F7400A1FC00220421134800F09CFC012208215A
:100F8400104800F097FC00BF142000F0EDF9002297
:100F940010210C4800F08EFC00222021094800F0AA
:100FA40089FC00224021074800F084FC01228021B2
:100FB400044800F07FFC4FF48071024800F093FC79
:100FC400FFF79BBA0000024080B594B000AF07F170
:100FD400200330220021184601F0E8F807F10C0341
:100FE40000221A605A609A60DA601A610023BB60BA
:100FF400234B1B6C224A43F080531364204B1B6C1D
:1010040003F08053BB60BB6800237B601D4B1B68EF
:1010140023F440431B4A43F400431360194B1B68F9
:1010240003F440437B607B6802233B620123FB6241
:1010340010233B630023BB6307F12003184600F031
:101044006DFC0346002B01D000F088F80F23FB60F1
:1010540000233B6100237B610023BB610023FB6110
:1010640007F10C030021184600F0D0FE0346002BC4
:1010740001D000F073F800BF5037BD4680BD00BFFB
:10108400003802400070004080B588B000AF07F11E
:101094000C0300221A605A609A60DA601A61002315
:1010A400BB602B4B1B6B2A4A43F001031363284B91
:1010B4001B6B03F00103BB60BB6800237B60244B04
:1010C4001B6B234A43F002031363214B1B6B03F096
:1010D40002037B607B6801220F211E4800F0EAFBBB
:1010E40000224FF4F8711B4800F0E4FB0122F021C8
:1010F400194800F0DFFB40F2FF13FB6001233B6162
:1011040000237B610023BB6107F10C0319461148DE
:1011140000F034FA0F23FB6000233B6101237B6161
:1011240007F10C0319460C4800F028FAF023FB6081
:1011340001233B6100237B610023BB6107F10C03A6
:101144001946054800F01AFA00BF2037BD4680BD95
:1011540000380240000002400004024080B400AFA6
:1011640072B600BFFEE7000080B483B000AF002376
:101174007B60104B5B6C0F4A43F4804353640D4B0C
:101184005B6C03F480437B607B6800233B60094B0A
:101194001B6C084A43F080531364064B1B6C03F02A
:1011A40080533B603B6800BF0C37BD465DF8047B51
:1011B400704700BF0038024080B400AFFEE780B43F
:1011C40000AFFEE780B400AFFEE780B400AFFEE7F7
:1011D40080B400AFFEE780B400AF00BFBD465DF849
:1011E400047B704780B400AF00BFBD465DF8047B4C
:1011F400704780B400AF00BFBD465DF8047B704704
:1012040080B500AF00F090F800BF80BD80B400AF9F
:10121400064BD3F88830054A43F47003C2F888308B
:1012240000BFBD465DF8047B704700BF00ED00E0E1
:10123400DFF834D00D480E490E4A002302E0D4589A
:10124400C4500433C4188C42F9D30B4A0B4C00230A
:1012540001E013600432A242FBD3FFF7D7FF00F092
:1012640081FFFFF737F9704700800120000000205C
:101274000C000020F82100080C0000202C000020A5
:10128400FEE7000080B500AF0E4B1B680D4A43F427
:10129400007313600B4B1B680A4A43F480631360AA
:1012A400084B1B68074A43F480731360032000F063
:1012B40031F90F2000F008F8FFF756FF0023184615
:1012C40080BD00BF003C024080B582B000AF7860B2
:1012D400124B1A68124B1B7819464FF47A73B3FBFE
:1012E400F1F3B2FBF3F3184600F03BF90346002B8D
:1012F40001D001230EE07B680F2B0AD80022796805
:101304004FF0FF3000F011F9064A7B6813600023A8
:1013140000E0012318460837BD4680BD00000020C8
:10132400080000200400002080B400AF064B1B78A6
:101334001A46064B1B681344044A136000BFBD469B
:101344005DF8047B704700BF0800002028000020DF
:1013540080B400AF034B1B681846BD465DF8047BA0
:10136400704700BF2800002080B584B000AF7860CB
:10137400FFF7EEFFB8607B68FB60FB68B3F1FF3FEB
:1013840005D00A4B1B781A46FB681344FB6000BF68
:10139400FFF7DEFF0246BB68D31AFA689A42F7D811
:1013A40000BF00BF1037BD4680BD00BF080000204D
:1013B40080B485B000AF78607B6803F00703FB60FE
:1013C4000C4BDB68BB60BA684FF6FF031340BB608D
:1013D400FB681A02BB68134343F0BF6343F4003352
:1013E400BB60044ABB68D36000BF1437BD465DF8D8
:1013F400047B704700ED00E080B400AF044BDB6871
:101404001B0A03F007031846BD465DF8047B7047CA
:1014140000ED00E080B483B000AF03463960FB7197
:1014240097F90730002B0ADB3B68DAB20C4997F9CD
:1014340007301201D2B20B4483F800230AE03B6860
:10144400DAB20849FB7903F00F03043B1201D2B26C
:101454000B441A7600BF0C37BD465DF8047B704719
:1014640000E100E000ED00E080B489B000AFF86076
:10147400B9607A60FB6803F00703FB61FB69C3F1A1
:101484000703042B28BF0423BB61FB690433062B29
:1014940002D9FB69033B00E000237B614FF0FF327C
:1014A400BB6902FA03F3DA43BB681A407B699A40CA
:1014B4004FF0FF317B6901FA03F3D9437B680B409A
:1014C400134318462437BD465DF8047B704700007B
:1014D40080B582B000AF78607B68013BB3F1807F58
:1014E40001D301230FE00A4A7B68013B53600F21BB
:1014F4004FF0FF30FFF78EFF054B00229A60044B3C
:1015040007221A60002318460837BD4680BD00BF75
:1015140010E000E080B582B000AF78607868FFF733
:1015240047FF00BF0837BD4680BD80B586B000AF19
:101534000346B9607A60FB7300237B61FFF75CFFAD
:1015440078617A68B9687869FFF78EFF024697F97F
:101554000F3011461846FFF75DFF00BF1837BD4630
:1015640080BD80B582B000AF78607868FFF7B0FFC7
:10157400034618460837BD4680BD000080B489B0D4
:1015840000AF7860396000237B6100233B61002356
:10159400BB610023FB6159E10122FB6902FA03F3F9
:1015A4007B613B681B687A6913403B613A697B69DC
:1015B4009A4240F048813B685B6803F00303012BC7
:1015C40005D03B685B6803F00303022B30D17B68D2
:1015D4009B68BB61FB695B00032202FA03F3DB43F4
:1015E400BA691340BB613B68DA68FB695B0002FAC5
:1015F40003F3BA691343BB617B68BA699A607B6879
:101604005B68BB610122FB6902FA03F3DB43BA693D
:101614001340BB613B685B681B0903F00102FB6973
:1016240002FA03F3BA691343BB617B68BA695A606F
:101634003B685B6803F00303032B17D07B68DB680C
:10164400BB61FB695B00032202FA03F3DB43BA6963
:101654001340BB613B689A68FB695B0002FA03F3C1
:10166400BA691343BB617B68BA69DA603B685B683B
:1016740003F00303022B23D1FB69DA087B680832E9
:1016840053F82230BB61FB6903F007039B000F2270
:1016940002FA03F3DB43BA691340BB613B681A697E
:1016A400FB6903F007039B0002FA03F3BA691343CF
:1016B400BB61FB69DA087B680832B96943F8221018
:1016C4007B681B68BB61FB695B00032202FA03F3BE
:1016D400DB43BA691340BB613B685B6803F00302F8
:1016E400FB695B0002FA03F3BA691343BB617B68CD
:1016F400BA691A603B685B6803F44033002B00F05E
:10170400A2800023FB60574B5B6C564A43F4804332
:101714005364544B5B6C03F48043FB60FB68524A94
:10172400FB699B08023352F82330BB61FB6903F069
:1017340003039B000F2202FA03F3DB43BA6913404D
:10174400BB617B68494A934219D07B68484A9342FB
:1017540013D07B68474A93420DD07B68464A934234
:1017640007D07B68454A934201D1042308E007234C
:1017740006E0032304E0022302E0012300E0002347
:10178400FA6902F0030292009340BA691343BB6101
:101794003549FB699B080233BA6941F82320384B69
:1017A4009B68BB613B69DB43BA691340BB613B681F
:1017B4005B6803F48013002B03D0BA693B691343BD
:1017C400BB612F4ABB6993602D4BDB68BB613B69EE
:1017D400DB43BA691340BB613B685B6803F40013E5
:1017E400002B03D0BA693B691343BB61244ABB692C
:1017F400D360234B5B68BB613B69DB43BA6913402D
:10180400BB613B685B6803F40033002B03D0BA6907
:101814003B691343BB611A4ABB695360184B1B688D
:10182400BB613B69DB43BA691340BB613B685B68DE
:1018340003F48033002B03D0BA693B691343BB61C3
:101844000F4ABB691360FB690133FB61FB690F2B12
:101854007FF6A2AE00BF00BF2437BD465DF8047B0F
:10186400704700BF003802400038014000000240C9
:101874000004024000080240000C02400010024034
:10188400003C014080B485B000AF78600B467B809B
:101894007B681A697B881340002B02D00123FB73F9
:1018A40001E00023FB73FB7B18461437BD465DF84B
:1018B400047B704780B483B000AF78600B467B80B4
:1018C40013467B707B78002B03D07A887B689A61FF
:1018D40003E07B881A047B689A6100BF0C37BD461D
:1018E4005DF8047B704780B485B000AF78600B4628
:1018F4007B807B685B69FB607A88FB6813401A0411
:10190400FB68D9437B880B401A437B689A6100BF0C
:101914001437BD465DF8047B7047000080B586B07F
:1019240000AF78607B68002B01D1012367E27B68FC
:101934001B6803F00103002B75D0884B9B6803F0F0
:101944000C03042B0CD0854B9B6803F00C03082B71
:1019540012D1824B5B6803F48003B3F5800F0BD183
:101964007E4B1B6803F40033002B5BD07B685B6801
:10197400002B57D1012342E27B685B68B3F5803FBB
:1019840006D1764B1B68754A43F4803313601DE01F
:101994007B685B68B3F5A02F0CD1704B1B686F4A52
:1019A40043F4802313606D4B1B686C4A43F480330B
:1019B40013600BE0694B1B68684A23F4803313609F
:1019C400664B1B68654A23F4802313607B685B685D
:1019D400002B13D0FFF7BCFC386108E0FFF7B8FC1C
:1019E40002463B69D31A642B01D9032307E25B4BFC
:1019F4001B6803F40033002BF0D014E0FFF7A8FCBD
:101A0400386108E0FFF7A4FC02463B69D31A642B53
:101A140001D90323F3E1514B1B6803F40033002B7A
:101A2400F0D100E000BF7B681B6803F00203002BC9
:101A340063D04A4B9B6803F00C03002B0BD0474B3D
:101A44009B6803F00C03082B1CD1444B5B6803F424
:101A54008003002B16D1414B1B6803F00203002BBB
:101A640005D07B68DB68012B01D00123C7E13B4B28
:101A74001B6823F0F8027B681B69DB0037491343BA
:101A84000B603AE07B68DB68002B20D0344B0122EA
:101A94001A60FFF75DFC386108E0FFF759FC024665
:101AA4003B69D31A022B01D90323A8E12B4B1B68F2
:101AB40003F00203002BF0D0284B1B6823F0F8023C
:101AC4007B681B69DB00254913430B6015E0244B3D
:101AD40000221A60FFF73CFC386108E0FFF738FC8D
:101AE40002463B69D31A022B01D9032387E11B4B1E
:101AF4001B6803F00203002BF0D17B681B6803F022
:101B04000803002B36D07B685B69002B16D0154B7D
:101B140001221A60FFF71CFC386108E0FFF718FC8B
:101B240002463B69D31A022B01D9032367E10B4B0D
:101B34005B6F03F00203002BF0D01BE0094B002283
:101B44001A60FFF705FC38610EE0FFF701FC02465E
:101B54003B69D31A022B07D9032350E10038024012
:101B640000004742800E4742884B5B6F03F002033C
:101B7400002BEAD17B681B6803F00403002B00F000
:101B840097800023FB75814B1B6C03F08053002B63
:101B94000FD10023BB607D4B1B6C7C4A43F0805308
:101BA40013647A4B1B6C03F08053BB60BB68012346
:101BB400FB75774B1B6803F48073002B18D1744BAF
:101BC4001B68734A43F480731360FFF7C1FB3861E9
:101BD40008E0FFF7BDFB02463B69D31A022B01D98B
:101BE40003230CE16A4B1B6803F48073002BF0D0D1
:101BF4007B689B68012B06D1644B1B6F634A43F0DF
:101C0400010313671CE07B689B68052B0CD15F4BB9
:101C14001B6F5E4A43F0040313675C4B1B6F5B4A04
:101C240043F0010313670BE0584B1B6F574A23F033
:101C340001031367554B1B6F544A23F004031367C6
:101C44007B689B68002B15D0FFF782FB38610AE0A4
:101C5400FFF77EFB02463B69D31A41F28832934276
:101C640001D90323CBE0494B1B6F03F00203002B84
:101C7400EED014E0FFF76CFB38610AE0FFF768FB75
:101C840002463B69D31A41F28832934201D90323B5
:101C9400B5E03E4B1B6F03F00203002BEED1FB7D3E
:101CA400012B05D1394B1B6C384A23F08053136444
:101CB4007B689B69002B00F0A180344B9B6803F088
:101CC4000C03082B5CD07B689B69022B41D1314B00
:101CD40000221A60FFF73CFB386108E0FFF738FB8D
:101CE40002463B69D31A022B01D9032387E0274B11
:101CF4001B6803F00073002BF0D17B68DA697B6802
:101D04001B6A1A437B685B6A9B011A437B689B6A64
:101D14005B08013B1B041A437B68DB6A1B061B49F7
:101D240013434B601B4B01221A60FFF711FB386110
:101D340008E0FFF70DFB02463B69D31A022B01D9D9
:101D440003235CE0114B1B6803F00073002BF0D0FD
:101D540054E0104B00221A60FFF7FAFA386108E0E9
:101D6400FFF7F6FA02463B69D31A022B01D9032383
:101D740045E0064B1B6803F00073002BF0D13DE0F7
:101D84007B689B69012B07D1012338E000380240AE
:101D940000700040600047421B4B5B68FB607B683F
:101DA4009B69012B28D0FB6803F480027B68DB6904
:101DB4009A4221D1FB6803F03F027B681B6A9A4276
:101DC4001AD1FA6847F6C07313407A68526A9201CE
:101DD400934211D1FB6803F440327B689B6A5B0831
:101DE400013B1B049A4207D1FB6803F070627B68D5
:101DF400DB6A1B069A4201D0012300E00023184647
:101E04001837BD4680BD00BF0038024080B584B09D
:101E140000AF786039607B68002B01D10123CCE0EE
:101E2400684B1B6803F007033A689A420CD9654B68
:101E34003A68D2B21A70634B1B6803F007033A681E
:101E44009A4201D00123B8E07B681B6803F00203C7
:101E5400002B20D07B681B6803F00403002B05D003
:101E6400594B9B68584A43F4E05393607B681B6862
:101E740003F00803002B05D0534B9B68524A43F4EC
:101E840060439360504B9B6823F0F0027B689B682F
:101E94004D4913438B607B681B6803F00103002BDF
:101EA40044D07B685B68012B07D1474B1B6803F464
:101EB4000033002B19D101237FE07B685B68022B80
:101EC40003D07B685B68032B07D13F4B1B6803F08F
:101ED4000073002B09D101236FE03B4B1B6803F017
:101EE4000203002B01D1012367E0374B9B6823F0E9
:101EF40003027B685B68344913438B60FFF728FA5D
:101F0400F8600AE0FFF724FA0246FB68D31A41F2AC
:101F14008832934201D903234FE02B4B9B6803F093
:101F24000C027B685B689B009A42EBD1254B1B68D3
:101F340003F007033A689A420CD2224B3A68D2B2B1
:101F44001A70204B1B6803F007033A689A4201D0C9
:101F5400012332E07B681B6803F00403002B08D0E4
:101F6400194B9B6823F4E0527B68DB6816491343E2
:101F74008B607B681B6803F00803002B09D0124BAD
:101F84009B6823F460427B681B69DB000E491343A2
:101F94008B6000F021F802460B4B9B681B0903F091
:101FA4000F030A49CB5C22FA03F3094A1360094B75
:101FB4001B681846FFF788F9002318461037BD46FA
:101FC40080BD00BF003C024000380240D821000818
:101FD40000000020040000202DE9B04F90B000AFB5
:101FE40000237B630023FB6300233B630023BB6369
:101FF400594B9B6803F00C03082B0DD0082B00F2FF
:10200400A180002B02D0042B03D09BE0534BBB6375
:102014009BE0534BBB6398E04F4B5B6803F03F037B
:102024007B634D4B5B6803F48003002B28D04A4B41
:102034005B689B0900223B627A623B6AC3F3080037
:102044000021474B03FB01F2002300FB03F313447D
:10205400434AA0FB0212FA620A46BA62FA6A1344BD
:10206400FB627B6B0022BB61FA61D7E90623D7E9E7
:102074000A01FEF7ADF802460B461346FB6353E034
:10208400354B5B689B0900223B617A613B69C3F372
:10209400080A4FF0000B52465B464FF000004FF029
:1020A4000001590141EAD261500102460B46B2EBEC
:1020B4000A0863EB0B094FF000024FF000034FEAEC
:1020C400891343EA98634FEA8812B2EB080463EB7E
:1020D40009054FF000024FF00003EB0043EA54738C
:1020E400E20014461D4614EB0A033B6045EB0B0368
:1020F4007B604FF000024FF00003D7E9004529460A
:102104008B02214643EA915321468A02104619461E
:102114007B6B0022BB60FA60D7E90223FEF758F814
:1021240002460B461346FB630B4B5B681B0C03F028
:10213400030301335B003B63FA6B3B6BB2FBF3F3CA
:10214400BB6302E0054BBB6300BFBB6B1846403763
:10215400BD46BDE8B08F00BF003802400024F40043
:1021640040787D0170B50D4D0D4C641BA410002604
:10217400A64209D10B4D0C4C00F020F8641BA410AE
:102184000026A64205D170BD55F8043B9847013698
:10219400EEE755F8043B98470136F2E7F0210008D2
:1021A400F0210008F0210008F4210008024403464D
:1021B400934200D1704703F8011BF9E7F8B500BF5B
:1021C400F8BC08BC9E467047F8B500BFF8BC08BC14
:0421D4009E4670476C
:1021D80000000000000000000102030406070809CF
:0821E8001CE0FF7F0100000074
:0421F000B901000829
:0421F4009501000849
:0C21F8000024F4001000000001000000B2
:0400000508001235A8
:00000001FF
