:020000040800F2
:100000000028002091070008B5060008BB0600087C
:10001000C1060008C7060008CD0600080000000061
:10002000000000000000000000000000D3060008EF
:10003000DF06000800000000EB060008F7060008D5
:10004000D9070008D9070008D9070008D907000810
:10005000D9070008D9070008D9070008D907000800
:10006000D9070008D9070008D9070008D9070008F0
:10007000D9070008D9070008D9070008D9070008E0
:10008000D9070008D9070008D9070008D9070008D0
:10009000D9070008D9070008D9070008D9070008C0
:1000A000D9070008D9070008D9070008D9070008B0
:1000B000D9070008D907000800000000D907000888
:1000C000D90700080000000000000000D907000860
:1000D00000000000D9070008D90700080000000050
:1000E000D907000805070008D9070008000000002C
:1000F0000000000000000000000000000000000000
:0C01000000000000000000005FF808F1A3
:10010C0010B5054C237833B9044B13B10448AFF345
:10011C0000800123237010BD70000020000000003F
:10012C006C30000808B5034B1BB103490348AFF30F
:10013C00008008BD00000000740000206C30000836
:10014C0080B500AF022000F0A5FB022000F008F8FB
:10015C00282000F005F80F2000F002F800BF80BD49
:10016C0080B582B000AF0346FB71022000F092FB19
:10017C00002201210A4800F03BFE0022022108481F
:10018C0000F036FEFB791B09DBB2184600F00AF8CA
:10019C00FB79184600F006F800BF0837BD4680BD55
:1001AC00000C014080B588B000AF0346FB710A20FB
:1001BC0000F070FB0023FB610EE0FB7903F0010201
:1001CC00FB699B0020333B4443F8142CFB795B0800
:1001DC00FB71FB690133FB61FB69032BEDDDFB68F4
:1001EC00DBB21A460121144800F002FE3B69DBB277
:1001FC001A460221104800F0FBFD7B69DBB21A465F
:10020C0004210D4800F0F4FDBB69DBB21A4608214D
:10021C00094800F0EDFD01220421084800F0E8FD3A
:10022C00022000F037FB00220421044800F0E0FD1E
:10023C0000BF2037BD4680BD00080140000C0140C6
:10024C0080B582B000AF0346FB71022000F022FBA8
:10025C00012201210A4800F0CBFD002202210848AE
:10026C0000F0C6FDFB791B09DBB21846FFF79AFFBD
:10027C00FB791846FFF796FF00BF0837BD4680BDD7
:10028C00000C014080B582B000AF7860022000F015
:10029C0001FB07E07B681B781846FFF7D1FF7B68F2
:1002AC0001337B607B681B78002BF3D100BF00BF50
:1002BC000837BD4680BD80B582B000AF03460A4604
:1002CC00FB711346BB71012000F0E4FABB79002BE3
:1002DC0002D0012B07D00DE0FB79803BDBB2184636
:1002EC00FFF73EFF06E0FB79403BDBB21846FFF719
:1002FC0037FF00BF00BF0837BD4680BD80B58AB050
:10030C0002AF00F065FA00F053F800F009F900F0C4
:10031C00A3F8FFF715FF01221F49204801F018FC34
:10032C0001221F491D4801F0A1FD012300221D4996
:10033C001A4801F0A7FE184B1B781A46164B5B782F
:10034C001946154B9B78384600930B46164902F01C
:10035C000DFA00210020FFF7AEFF3B461846FFF7D1
:10036C0091FF104B1B781A460E4B5B7819460D4BC0
:10037C009B78384600930B460C4902F0F7F90121A3
:10038C000020FFF798FF3B461846FFF77BFFC8207D
:10039C0000F080FABFE700BFA00000208C00002016
:1003AC00A4000020A8000020843000089830000829
:1003BC0080B594B000AF07F128032822002118461D
:1003CC0002F0CCF907F1140300221A605A609A600B
:1003DC00DA601A613B1D00221A605A609A60DA607A
:1003EC000A23BB620123BB631023FB6301233B6421
:1003FC0000237B6407F12803184600F01DFD03461B
:10040C00002B01D000F0FCF80F237B610023BB61B3
:10041C000023FB6100233B6200237B6207F1140382
:10042C000021184600F08AFF0346002B01D000F093
:10043C00E7F801237B604FF40073BB603B1D18464B
:10044C0001F0F6F80346002B01D000F0D9F800BFFC
:10045C005037BD4680BD000080B584B000AF07F1B9
:10046C000C0300210A461A800A469A700023BB60CE
:10047C003B4600221A605A60274B284A1A60264BCA
:10048C004FF0FF325A60244B4FF480729A6022482E
:10049C0001F03AFA0346002B01D000F0B1F8012329
:1004AC003B7300237B730023BB7307F10C03012206
:1004BC001946194801F0B4FA0346002B01D000F09C
:1004CC009FF801233B7211237B722023BB722323E1
:1004DC00FB7207F10803012219460F4801F010FCCA
:1004EC000346002B01D000F08BF801233B70002356
:1004FC007B701423BB7000237B603B4601221946A2
:10050C00054801F007FD0346002B01D000F078F8F8
:10051C0000BF1037BD4680BD8C0000200028004075
:10052C0080B588B000AF07F1100300221A605A6042
:10053C009A60DA60274B9B69264A43F0100393615B
:10054C00244B9B6903F01003FB60FB68214B9B69F8
:10055C00204A43F0040393611E4B9B6903F0040390
:10056C00BB60BB681B4B9B691A4A43F00803936141
:10057C00184B9B6903F008037B607B6800220F21FA
:10058C00154800F035FC002241F20701134800F039
:10059C002FFC0F233B6101237B610023BB610223F2
:1005AC00FB6107F1100319460B4800F0A5FA41F264
:1005BC0007033B6101237B610023BB610223FB61C9
:1005CC0007F110031946054800F096FA00BF2037D2
:1005DC00BD4680BD0010024000080140000C0140E7
:1005EC0080B582B000AF786001224FF4805103488F
:1005FC0000F0FEFB00BF0837BD4680BD000C01407B
:10060C0080B400AF72B600BFFEE7000080B483B0C8
:10061C0000AF0E4B9B690D4A43F0010393610B4BEA
:10062C009B6903F001037B607B68084BDB69074A1D
:10063C0043F08053D361054BDB6903F080533B607F
:10064C003B6800BF0C37BD4680BC704700100240B1
:10065C0080B584B000AF78607B681B680F4A93420A
:10066C0018D100F0DDFB0E4BDB690D4A43F0006343
:10067C00D3610B4BDB6903F00063FB60FB68094B38
:10068C0001221A6000220021292000F0FEF9292005
:10069C0000F017FA00BF1037BD4680BD002800409F
:1006AC00001002403C04424280B400AFFEE780B42C
:1006BC0000AFFEE780B400AFFEE780B400AFFEE70A
:1006CC0080B400AFFEE780B400AF00BFBD4680BC75
:1006DC00704780B400AF00BFBD4680BC704780B48B
:1006EC0000AF00BFBD4680BC704780B500AF00F0C6
:1006FC00B5F800BF80BD000080B500AF024801F026
:10070C0037FD00BF80BD00BF8C00002080B586B0D7
:10071C0000AF7860144A154BD31A7B617B693B613F
:10072C00134B1B68002B02D1114B124A1A60104B51
:10073C001A687B6813443A699A4207D201F0E4FFC5
:10074C0003460C221A604FF0FF3309E0084B1B687C
:10075C00FB60074B1A687B681344054A1360FB68FF
:10076C0018461837BD4680BD002800200004000044
:10077C00B0000020C800002080B400AF00BFBD4610
:10078C0080BC7047FFF7F8FF0B480C490C4A00235C
:10079C0002E0D458C4500433C4188C42F9D3094A2B
:1007AC00094C002301E013600432A242FBD301F098
:1007BC00B1FFFFF7A3FD7047000000207000002080
:1007CC002C31000870000020C8000020FEE700005B
:1007DC0080B500AF084B1B68074A43F01003136049
:1007EC00032000F047F90F2000F008F8FFF70EFF88
:1007FC000023184680BD00BF0020024080B582B0A7
:10080C0000AF7860124B1A68124B1B7819464FF4E4
:10081C007A73B3FBF1F3B2FBF3F3184600F05FF914
:10082C000346002B01D001230EE07B680F2B0AD866
:10083C00002279684FF0FF3000F027F9064A7B68F8
:10084C001360002300E0012318460837BD4680BD25
:10085C0000000020080000200400002080B400AF3D
:10086C00054B1B781A46054B1B681344034A13604F
:10087C0000BFBD4680BC704708000020B4000020BB
:10088C0080B400AF024B1B681846BD4680BC704755
:10089C00B400002080B584B000AF7860FFF7F0FFA3
:1008AC00B8607B68FB60FB68B3F1FF3F05D00A4B77
:1008BC001B781A46FB681344FB6000BFFFF7E0FF90
:1008CC000246BB68D31AFA689A42F7D800BF00BF39
:1008DC001037BD4680BD00BF0800002080B485B035
:1008EC0000AF78607B6803F00703FB600C4BDB68A0
:1008FC00BB60BA684FF6FF031340BB60FB681A027B
:10090C00BB68134343F0BF6343F40033BB60044A3A
:10091C00BB68D36000BF1437BD4680BC704700BFB6
:10092C0000ED00E080B400AF044BDB681B0A03F061
:10093C0007031846BD4680BC704700BF00ED00E0C1
:10094C0080B483B000AF0346FB7197F90730002BDE
:10095C000BDBFB7903F01F02064997F907305B09A3
:10096C00012000FA02F241F8232000BF0C37BD46EB
:10097C0080BC704700E100E080B483B000AF034658
:10098C003960FB7197F90730002B0ADB3B68DAB250
:10099C000C4997F907301201D2B20B4483F80023AB
:1009AC000AE03B68DAB20849FB7903F00F03043B19
:1009BC001201D2B20B441A7600BF0C37BD4680BC74
:1009CC00704700BF00E100E000ED00E080B489B0AA
:1009DC0000AFF860B9607A60FB6803F00703FB6155
:1009EC00FB69C3F10703042B28BF0423BB61FB691C
:1009FC000433062B02D9FB69033B00E000237B6127
:100A0C004FF0FF32BB6902FA03F3DA43BB681A40BA
:100A1C007B699A404FF0FF317B6901FA03F3D943AC
:100A2C007B680B40134318462437BD4680BC704787
:100A3C0080B582B000AF78607B68013BB3F1807FFA
:100A4C0001D301230FE00A4A7B68013B53600F215D
:100A5C004FF0FF30FFF790FF054B00229A60044BDC
:100A6C0007221A60002318460837BD4680BD00BF18
:100A7C0010E000E080B582B000AF78607868FFF7D6
:100A8C002DFF00BF0837BD4680BD80B586B000AFD6
:100A9C000346B9607A60FB7300237B61FFF742FF6A
:100AAC0078617A68B9687869FFF790FF024697F920
:100ABC000F3011461846FFF75FFF00BF1837BD46D1
:100ACC0080BD80B582B000AF0346FB7197F907304B
:100ADC001846FFF735FF00BF0837BD4680BD80B50F
:100AEC0082B000AF78607868FFF7A2FF0346184623
:100AFC000837BD4680BD000080B48BB000AF786075
:100B0C00396000237B6200233B6261E101227B6A36
:100B1C0002FA03F3FB613B681B68FA691340BB6183
:100B2C00BA69FB699A4240F050813B685B68974A0E
:100B3C0093425ED0954A934275D8954A934258D0C9
:100B4C00934A93426FD8934A934252D0914A93421C
:100B5C0069D8914A93424CD08F4A934263D88F4ABA
:100B6C00934246D08D4A93425DD8122B2AD8122B31
:100B7C0059D801A252F823F0FF0B0008D90B00083A
:100B8C00EB0B00082D0C0008330C0008330C00088C
:100B9C00330C0008330C0008330C0008330C00082D
:100BAC00330C0008330C0008330C0008330C00081D
:100BBC00330C0008330C0008330C0008E10B000860
:100BCC00F50B0008764A934213D02CE03B68DB68A7
:100BDC003B6229E03B68DB6804333B6224E03B6802
:100BEC00DB6808333B621FE03B68DB680C333B621D
:100BFC001AE03B689B68002B02D104233B6213E094
:100C0C003B689B68012B05D108233B627B68FA6922
:100C1C001A6109E008233B627B68FA695A6103E0B8
:100C2C0000233B6200E000BFBB69FF2B01D87B684F
:100C3C0001E07B6804337B61BB69FF2B02D87B6AC4
:100C4C009B0002E07B6A083B9B003B617B691A6856
:100C5C000F213B6901FA03F3DB431A40396A3B6904
:100C6C0001FA03F31A437B691A603B685B6803F073
:100C7C008053002B00F0A9804A4B9B69494A43F0F2
:100C8C0001039361474B9B6903F00103BB60BB6895
:100C9C00454A7B6A9B08023352F82330FB607B6A1F
:100CAC0003F003039B000F2202FA03F3DB43FA6801
:100CBC001340FB607B683D4A93420DD07B683C4AF5
:100CCC00934207D07B683B4A934201D1022304E054
:100CDC00032302E0012300E000237A6A02F00302FE
:100CEC0092009340FA681343FB602F497B6A9B0880
:100CFC000233FA6841F823203B685B6803F48013E5
:100D0C00002B06D02C4B9A682B49BB6913438B6084
:100D1C0006E0294B9A68BB69DB43274913408B607B
:100D2C003B685B6803F40013002B06D0224BDA6897
:100D3C002149BB691343CB6006E01F4BDA68BB69E2
:100D4C00DB431D491340CB603B685B6803F4003305
:100D5C00002B06D0184B5A681749BB6913434B60DC
:100D6C0006E0154B5A68BB69DB43134913404B60D3
:100D7C003B685B6803F48033002B1FD00E4B1A6862
:100D8C000D49BB6913430B601FE000BF000032101C
:100D9C000000311000002210000021100000121081
:100DAC00000011100010024000000140000801403A
:100DBC00000C014000100140000401400B4B1A686C
:100DCC00BB69DB43094913400B607B6A01337B62CF
:100DDC003B681A687B6A22FA03F3002B7FF496AE09
:100DEC0000BF00BF2C37BD4680BC704700040140DB
:100DFC0080B483B000AF78600B467B8013467B7069
:100E0C007B78002B03D07A887B681A6103E07B889F
:100E1C001A047B681A6100BF0C37BD4680BC704752
:100E2C0080B400AF034B01221A6000BFBD4680BCEA
:100E3C00704700BF20000E4280B586B000AF7860CE
:100E4C007B68002B01D1012372E27B681B6803F0E5
:100E5C000103002B00F08780924B5B6803F00C03BE
:100E6C00042B0CD08F4B5B6803F00C03082B12D1B6
:100E7C008C4B5B6803F48033B3F5803F0BD1894B0B
:100E8C001B6803F40033002B6CD07B685B68002B71
:100E9C0068D101234CE27B685B68B3F5803F06D1D7
:100EAC00804B1B687F4A43F4803313602EE07B68D1
:100EBC005B68002B0CD17B4B1B687A4A23F4803384
:100ECC001360784B1B68774A23F4802313601DE072
:100EDC007B685B68B3F5A02F0CD1724B1B68714A11
:100EEC0043F4802313606F4B1B686E4A43F48033CA
:100EFC0013600BE06B4B1B686A4A23F4803313605E
:100F0C00684B1B68674A23F4802313607B685B681B
:100F1C00002B13D0FFF7B4FC386108E0FFF7B0FCEE
:100F2C0002463B69D31A642B01D9032300E25D4BC3
:100F3C001B6803F40033002BF0D014E0FFF7A0FC87
:100F4C00386108E0FFF79CFC02463B69D31A642B1E
:100F5C0001D90323ECE1534B1B6803F40033002B42
:100F6C00F0D100E000BF7B681B6803F00203002B8C
:100F7C0063D04C4B5B6803F00C03002B0BD0494B3C
:100F8C005B6803F00C03082B1CD1464B5B6803F425
:100F9C008033002B16D1434B1B6803F00203002B4C
:100FAC0005D07B681B69012B01D00123C0E13D4BAF
:100FBC001B6823F0F8027B685B69DB00394913433B
:100FCC000B603AE07B681B69002B20D0364B01226A
:100FDC001A60FFF755FC386108E0FFF751FC024638
:100FEC003B69D31A022B01D90323A1E12D4B1B68BA
:100FFC0003F00203002BF0D02A4B1B6823F0F802FD
:10100C007B685B69DB00274913430B6015E0264BBB
:10101C0000221A60FFF734FC386108E0FFF730FC5F
:10102C0002463B69D31A022B01D9032380E11D4BE5
:10103C001B6803F00203002BF0D17B681B6803F0E4
:10104C000803002B3AD07B689B69002B19D0174BF7
:10105C0001221A60FFF714FC386108E0FFF710FC5E
:10106C0002463B69D31A022B01D9032360E10D4BD5
:10107C005B6A03F00203002BF0D0012000F0BAFAF7
:10108C001CE00A4B00221A60FFF7FAFB38610FE0F4
:10109C00FFF7F6FB02463B69D31A022B08D9032350
:1010AC0046E100BF00100240000042428004424270
:1010BC00924B5B6A03F00203002BE9D17B681B683F
:1010CC0003F00403002B00F0A6800023FB758B4B70
:1010DC00DB6903F08053002B0DD1884BDB69874A09
:1010EC0043F08053D361854BDB6903F08053BB60C5
:1010FC00BB680123FB75824B1B6803F48073002BC8
:10110C0018D17F4B1B687E4A43F480731360FFF742
:10111C00B7FB386108E0FFF7B3FB02463B69D31A13
:10112C00642B01D9032303E1754B1B6803F4807313
:10113C00002BF0D07B68DB68012B06D16F4B1B6A50
:10114C006E4A43F0010313622DE07B68DB68002BD1
:10115C000CD16A4B1B6A694A23F001031362674B7B
:10116C001B6A664A23F0040313621CE07B68DB688D
:10117C00052B0CD1614B1B6A604A43F004031362CC
:10118C005E4B1B6A5D4A43F0010313620BE05B4B41
:10119C001B6A5A4A23F001031362584B1B6A574AC5
:1011AC0023F0040313627B68DB68002B15D0FFF778
:1011BC0067FB38610AE0FFF763FB02463B69D31A11
:1011CC0041F28832934201D90323B1E04B4B1B6AA5
:1011DC0003F00203002BEED014E0FFF751FB386153
:1011EC000AE0FFF74DFB02463B69D31A41F2883205
:1011FC00934201D903239BE0404B1B6A03F002038B
:10120C00002BEED1FB7D012B05D13C4BDB693B4A1E
:10121C0023F08053D3617B68DB69002B00F087805F
:10122C00364B5B6803F00C03082B61D07B68DB69E1
:10123C00022B46D1334B00221A60FFF721FB386199
:10124C0008E0FFF71DFB02463B69D31A022B01D9BC
:10125C0003236DE0294B1B6803F00073002BF0D1C6
:10126C007B681B6AB3F5803F08D1244B5B6823F481
:10127C0000327B689B68214913434B601F4B5B68B2
:10128C0023F474127B68196A7B685B6A0B431B49F5
:10129C0013434B601B4B01221A60FFF7F1FA3861C4
:1012AC0008E0FFF7EDFA02463B69D31A022B01D98D
:1012BC0003233DE0114B1B6803F00073002BF0D0AF
:1012CC0035E0104B00221A60FFF7DAFA386108E0BB
:1012DC00FFF7D6FA02463B69D31A022B01D9032336
:1012EC0026E0064B1B6803F00073002BF0D11EE0C8
:1012FC007B68DB69012B07D1012319E00010024048
:10130C0000700040600042420B4B5B68FB60FB6866
:10131C0003F480327B681B6A9A4206D1FB6803F4A3
:10132C0070127B685B6A9A4201D0012300E00023B3
:10133C0018461837BD4680BD0010024080B584B0F9
:10134C0000AF786039607B68002B01D10123D0E0BD
:10135C006A4B1B6803F007033A689A4210D9674B33
:10136C001B6823F0070265493B6813430B60634B12
:10137C001B6803F007033A689A4201D00123B8E0D6
:10138C007B681B6803F00203002B20D07B681B6872
:10139C0003F00403002B05D0594B5B68584A43F407
:1013AC00E06353607B681B6803F00803002B05D0D7
:1013BC00534B5B68524A43F460535360504B5B6829
:1013CC0023F0F0027B689B684D4913434B607B68AC
:1013DC001B6803F00103002B40D07B685B68012B7A
:1013EC0007D1474B1B6803F40033002B15D10123A5
:1013FC007FE07B685B68022B07D1414B1B6803F0D5
:10140C000073002B09D1012373E03D4B1B6803F0E3
:10141C000203002B01D101236BE0394B5B6823F0F5
:10142C0003027B685B68364913434B60FFF728FA6D
:10143C00F8600AE0FFF724FA0246FB68D31A41F27F
:10144C008832934201D9032353E02D4B5B6803F0A0
:10145C000C027B685B689B009A42EBD1274B1B68A4
:10146C0003F007033A689A4210D2244B1B6823F00E
:10147C00070222493B6813430B60204B1B6803F0A7
:10148C0007033A689A4201D0012332E07B681B685B
:10149C0003F00403002B08D0194B5B6823F4E062C3
:1014AC007B68DB68164913434B607B681B6803F051
:1014BC000803002B09D0124B5B6823F460527B6845
:1014CC001B69DB000E4913434B6000F021F8024608
:1014DC000B4B5B681B0903F00F030A49CB5C22FA28
:1014EC0003F3094A1360094B1B681846FFF786F98A
:1014FC00002318461037BD4680BD00BF00200240B7
:10150C0000100240B0300008000000200400002051
:10151C0080B487B000AF0023FB600023BB600023C6
:10152C007B6100237B6000233B611E4B5B68FB608F
:10153C00FB6803F00C03042B02D0082B03D027E02C
:10154C00194B3B6127E0FB689B0C03F00F03174A18
:10155C00D35C7B60FB6803F48033002B10D0114B01
:10156C005B685B0C03F00103114AD35CBB607B68C6
:10157C000D4A03FB02F2BB68B2FBF3F37B6104E0A0
:10158C007B680C4A02FB03F37B617B693B6102E0E5
:10159C00054B3B6100BF3B6918461C37BD4680BC00
:1015AC00704700BF0010024000127A00C8300008DB
:1015BC00D830000800093D0080B400AF024B1B6816
:1015CC001846BD4680BC70470000002080B500AFB7
:1015DC00FFF7F2FF0246054B5B68DB0A03F00703DB
:1015EC000349CB5C22FA03F3184680BD001002407D
:1015FC00C030000880B485B000AF78600A4B1B681F
:10160C000A4AA2FB03235B0A7A6802FB03F3FB6022
:10161C0000BFFB685A1EFA60002BF9D100BF00BF57
:10162C001437BD4680BC704700000020D34D6210BB
:10163C0080B586B000AF786000233B610023FB606F
:10164C007B681B6803F00103002B7DD00023FB7526
:10165C004F4BDB6903F08053002B0DD14C4BDB69F6
:10166C004B4A43F08053D361494BDB6903F0805301
:10167C00BB60BB680123FB75464B1B6803F480738E
:10168C00002B18D1434B1B68424A43F48073136000
:10169C00FFF7F6F8386108E0FFF7F2F802463B690D
:1016AC00D31A642B01D903236DE03A4B1B6803F466
:1016BC008073002BF0D0364B1B6A03F44073FB6035
:1016CC00FB68002B2ED07B685B6803F44073FA68D0
:1016DC009A4227D02E4B1B6A23F44073FB602E4B8F
:1016EC0001221A602C4B00221A60294AFB681362F3
:1016FC00FB6803F00103002B14D0FFF7C1F838612D
:10170C000AE0FFF7BDF802463B69D31A41F2883272
:10171C00934201D9032336E01D4B1B6A03F00203ED
:10172C00002BEED01A4B1B6A23F440727B685B686B
:10173C00174913430B62FB7D012B05D1144BDB695D
:10174C00134A23F08053D3617B681B6803F00203B8
:10175C00002B08D00E4B5B6823F440427B689B68DF
:10176C000B4913434B607B681B6803F01003002B81
:10177C0008D0074B5B6823F480027B68DB68044964
:10178C0013434B60002318461837BD4680BD00BF7D
:10179C0000100240007000404004424280B588B006
:1017AC0000AF786000237B610023FB6100233B6169
:1017BC000023FB600023BB617B68102B0AD07B6885
:1017CC00102B00F28A807B68012B45D07B68022BA2
:1017DC0075D082E0464B5B68FB60454B1B6803F0A1
:1017EC008073002B7BD0FB689B0C03F00F03414AEA
:1017FC00D35C3B61FB6803F48033002B15D03C4B6E
:10180C005B685B0C03F001033B4AD35C7B61FB68B8
:10181C0003F48033002B0DD0384A7B69B2FBF3F212
:10182C003B6902FB03F3FB6104E03B69344A02FBB6
:10183C0003F3FB612E4B5B6803F48003B3F5800F5D
:10184C0002D1FB69BB614AE0FB695B002D4AA2FB3C
:10185C0003235B08BB6142E0254B1B6AFB60FB6802
:10186C0003F44073B3F5807F08D1FB6803F00203E7
:10187C00002B03D04FF40043BB611FE0FB6803F463
:10188C004073B3F5007F09D1194B5B6A03F0020377
:10189C00002B03D049F64043BB610FE0FB6803F417
:1018AC004073B3F5407F1CD1114B1B6803F400331C
:1018BC00002B16D04FF22443BB6112E011E0FFF76E
:1018CC0085FE02460A4B5B689B0B03F00303013356
:1018DC005B00B2FBF3F3BB6104E000BF02E000BFAE
:1018EC0000E000BFBB6918462037BD4680BD00BF75
:1018FC0000100240DC300008EC30000800127A00C6
:10190C0000093D00ABAAAAAA80B584B000AF7860EC
:10191C000023FB607B68002B01D101237AE07B68FC
:10192C005B7CDBB2002B05D17B6800221A747868D3
:10193C00FEF78EFE7B6802225A74786800F042FC37
:10194C000346002B04D07B6804225A74012361E007
:10195C00786800F0FBFC0346002B04D07B68042263
:10196C005A74012356E07B681B685A687B681B68B5
:10197C0022F007025A607B689B68002B05D0274B2E
:10198C001B6B264A23F001031363244BDB6A23F4FD
:10199C0060727B689B6821491343CB627B685B68F0
:1019AC00B3F1FF3F03D07B685B68FB600EE0012066
:1019BC00FFF7F4FEF860FB68002B04D17B6804226F
:1019CC005A74012326E0FB68013BFB60FB681A0C90
:1019DC007B681B6802F00F029A607B681B68FA68D0
:1019EC0092B2DA60786800F0D9FC0346002B04D080
:1019FC007B6804225A7401230CE07B680022DA73A2
:101A0C007B6801225A737B6801229A737B680122DE
:101A1C005A74002318461037BD4680BD006C004038
:101A2C0090B587B000AFF860B9607A6000237B6135
:101A3C0000233B61FB68002B02D0BB68002B01D15B
:101A4C00012380E0FB681B7C012B01D102237AE08F
:101A5C00FB6801221A74FB6802225A747B68002B03
:101A6C0013D1BB681B781A464FF4616303FB02F277
:101A7C00BB685B7819460B461B015B1A9B00134431
:101A8C00BA68927813447B611EE0BB681B781846D9
:101A9C0000F0C9FC03461A464FF4616303FB02F4E1
:101AAC00BB685B78184600F0BEFC03461A4613462A
:101ABC001B019B1A9B001C44BB689B78184600F0CA
:101ACC00B2FC034623447B617969F86800F0D7FBCC
:101ADC000346002B07D0FB6804225A74FB680022D3
:101AEC001A7401232FE0FB681B685A68FB681B689B
:101AFC0022F005025A60F86800F0E8FB38613B6997
:101B0C00B3F1FF3F18D03A697B699A4214D23B6912
:101B1C0003F5A83303F5C0733B613969F86800F02D
:101B2C00EEFB0346002B07D0FB6804225A74FB68BB
:101B3C0000221A74012306E0FB6801225A74FB6828
:101B4C0000221A74002318461C37BD4690BD0000B5
:101B5C0080B588B000AFF860B9607A600023BB61D3
:101B6C000023FB6100237B6100233B61FB68002B9E
:101B7C0002D0BB68002B01D10123B5E0FB681B68C8
:101B8C005B6803F00403002B01D00123ACE0F86880
:101B9C0000F045FBB861BB69554AA2FB0323DB0A85
:101BAC003B61BA69524BA3FB0213DB0A4FF4616130
:101BBC0001FB03F3D31A4F4AA2FB03235B09DAB2EE
:101BCC00BB685A70BB694A4AA2FB0312D20A4FF493
:101BDC00616101FB02F29A1A464BA3FB02135909ED
:101BEC000B461B015B1A9B00D11ACAB2BB689A70D8
:101BFC003B69172B55D93B693F4AA2FB03231B09B1
:101C0C007B6139693C4BA3FB01231A0913465B002A
:101C1C001344DB00CA1AD2B2BB681A70F86800F021
:101C2C0055FBF861FB69B3F1FF3F08D0FA69BB695A
:101C3C009A4204D9FA69BB69D31AFB6102E04FF0EE
:101C4C00FF33FB617B692D4A02FB03F3BA69D31A9C
:101C5C00BB61B969F86800F012FB0346002B01D098
:101C6C00012341E0FB69B3F1FF3F0CD0FA69BB697A
:101C7C001344FB61F969F86800F041FB0346002B43
:101C8C000AD0012330E0F969F86800F038FB03460C
:101C9C00002B01D0012327E07969F86800F0E0FB04
:101CAC0003E03B69DAB2BB681A707B68002B1AD070
:101CBC00BB681B78184600F099FB03461A46BB68B4
:101CCC001A70BB685B78184600F090FB03461A4606
:101CDC00BB685A70BB689B78184600F087FB0346BC
:101CEC001A46BB689A70002318462037BD4680BD43
:101CFC00C5B3A29189888888ABAAAAAA8051010091
:101D0C0080B588B000AFF860B9607A600023FB61E1
:101D1C000023BB6100237B61FB68002B02D0BB68F6
:101D2C00002B01D1012397E0FB681B7C012B01D117
:101D3C00022391E0FB6801221A74FB6802225A7498
:101D4C007B68002B0CD1BB68DA78FB68DA73BB6854
:101D5C005A78FB685A73BB689A78FB689A731AE0D6
:101D6C00BB68DB78184600F05EFB03461A46FB683E
:101D7C00DA73BB685B78184600F055FB03461A46CD
:101D8C00FB685A73BB689B78184600F04CFB034603
:101D9C001A46FB689A73FB68DB7B1846FB68597B19
:101DAC00FB689B7B1A4600F037FC03461A46FB681F
:101DBC001A73FB681A7BBB681A70F86800F02FFA6C
:101DCC00F861FB69264AA2FB0323DB0A7B617B6972
:101DDC00182B3AD97B69234AA2FB03231B09224AFD
:101DEC0002FB03F3FA69D31AFB61F969F86800F096
:101DFC0046FA0346002B07D0FB6804225A74FB6892
:101E0C0000221A74012327E0F86800F05FFAB86129
:101E1C00BB69B3F1FF3F18D0BA69FB699A4214D27F
:101E2C00BB6903F5A83303F5C073BB61B969F868E6
:101E3C0000F065FA0346002B07D0FB6804225A74A5
:101E4C00FB6800221A74012306E0FB6801225A7415
:101E5C00FB6800221A74002318462037BD4680BD4B
:101E6C00C5B3A291ABAAAAAA8051010080B586B0D5
:101E7C0000AFF860B9607A6007F1140300210A46DC
:101E8C001A800A469A70FB68002B02D0BB68002BA4
:101E9C0001D101233AE007F1140300221946F86836
:101EAC00FFF756FE0346002B01D001232EE0FB6802
:101EBC001A7BBB681A70FB68DA7BBB68DA70FB684C
:101ECC005A7BBB685A70FB689A7BBB689A707B68BC
:101EDC00002B1AD0BB68DB78184600F087FA034653
:101EEC001A46BB68DA70BB685B78184600F07EFA5D
:101EFC0003461A46BB685A70BB689B78184600F0BC
:101F0C0075FA03461A46BB689A70002318461837B0
:101F1C00BD4680BD90B589B000AFF860B9607A60FD
:101F2C000023FB6107F1140300210A461A800A46BC
:101F3C009A70FB68002B02D0BB68002B01D10123E7
:101F4C0099E0FB681B7C012B01D1022393E0FB6819
:101F5C0001221A74FB6802225A7407F1140300223E
:101F6C001946F868FFF7F4FD0346002B01D0012356
:101F7C0081E03B7D1A464FF4616303FB02F27B7DEB
:101F8C0019460B461B015B1A9B001344BA7D134484
:101F9C00BB617B68002B13D1BB681B781A464FF4CE
:101FAC00616303FB02F2BB685B7819460B461B01AD
:101FBC005B1A9B001344BA6892781344FB611EE0D1
:101FCC00BB681B78184600F02EFA03461A464FF4ED
:101FDC00616303FB02F4BB685B78184600F023FADC
:101FEC0003461A4613461B019B1A9B001C44BB68F4
:101FFC009B78184600F017FA03462344FB61FA69F4
:10200C00BB699A4205D2FB6903F5A83303F5C0738B
:10201C00FB61F969F86800F072F90346002B07D0F0
:10202C00FB6804225A74FB6800221A74012322E014
:10203C00FB681B685A68FB681B6822F002025A6036
:10204C00FB681B681A68FB681B6842F002021A6086
:10205C000B4B1B680A4A43F400331360084B9B6814
:10206C00074A43F400339360FB6801225A74FB68FF
:10207C0000221A74002318462437BD4690BD00BFB9
:10208C000004014080B586B000AFF860B9607A609A
:10209C003B6000237B61FB68002B02D0BB68002BEC
:1020AC0001D101235AE0F86800F010F978617B69DE
:1020BC002C4AA2FB0323D90A2B4BA3FB01231A099D
:1020CC0013465B001344DB00CA1AD2B2BB681A7009
:1020DC007A69244BA3FB0213DB0A4FF4616101FB09
:1020EC0003F3D31A214AA2FB03235B09DAB2BB68C0
:1020FC005A707B691B4AA2FB0312D20A4FF461612E
:10210C0001FB02F29A1A194BA3FB021359090B4655
:10211C001B015B1A9B00D11ACAB2BB689A703B6850
:10212C00002B1AD0BB681B78184600F05FF90346E9
:10213C001A46BB681A70BB685B78184600F056F9F3
:10214C0003461A46BB685A70BB689B78184600F069
:10215C004DF903461A46BB689A7000231846183787
:10216C00BD4680BDC5B3A291ABAAAAAA89888888AE
:10217C0080B582B000AF78607B681B681B6803F089
:10218C000203002B11D07B681B685B6803F0020311
:10219C00002B0AD07868FEF723FA7B681B685A6814
:1021AC007B681B6822F002025A60054B4FF4003228
:1021BC005A617B6801225A7400BF0837BD4680BD46
:1021CC000004014080B584B000AF78600023FB6050
:1021DC007B68002B01D101231DE07B681B685A68CA
:1021EC007B681B6822F008025A60FEF749FBF86016
:1021FC0009E0FEF745FB0246FB68D31AB3F57A7F7C
:10220C0001D9032307E07B681B685B6803F00803B4
:10221C00002BEED0002318461037BD4680BD80B48D
:10222C0087B000AF786000237B8200233B820023C1
:10223C00FB8100237B617B681B689B697B827B68CD
:10224C001B68DB69FB817B681B689B693B827A8A14
:10225C003B8A9A4208D03B8A1A047B681B68DB696C
:10226C009BB213437B6104E07B8A1A04FB89134302
:10227C007B617B6918461C37BD4680BC704780B5B6
:10228C0084B000AF786039600023FB73786800F08D
:10229C005DF80346002B02D00123FB7311E07B6831
:1022AC001B683A68120C9A617B681B683A6892B298
:1022BC00DA61786800F072F80346002B01D0012334
:1022CC00FB73FB7B18461037BD4680BD80B485B0D0
:1022DC0000AF78600023FB810023BB817B681B6807
:1022EC001B6AFB817B681B685B6ABB81FB891A04D8
:1022FC00BB89134318461437BD4680BC704780B564
:10230C0084B000AF786039600023FB73786800F00C
:10231C001DF80346002B02D00123FB7311E07B68F0
:10232C001B683A68120C1A627B681B683A6892B296
:10233C005A62786800F032F80346002B01D0012372
:10234C00FB73FB7B18461037BD4680BD80B584B04F
:10235C0000AF78600023FB60FEF792FAF86009E0AA
:10236C00FEF78EFA0246FB68D31AB3F57A7F01D9D1
:10237C0003230FE07B681B685B6803F02003002BD2
:10238C00EED07B681B685A687B681B6842F01002B1
:10239C005A60002318461037BD4680BD80B584B006
:1023AC0000AF78600023FB607B681B685A687B6811
:1023BC001B6822F010025A60FEF762FAF86009E01E
:1023CC00FEF75EFA0246FB68D31AB3F57A7F01D9A1
:1023DC00032307E07B681B685B6803F02003002B7A
:1023EC00EED0002318461037BD4680BD80B485B0B2
:1023FC0000AF0346FB710023FB6005E0FB68013373
:10240C00FB60FB790A3BFB71FB79092BF6D8FB6867
:10241C00DBB21B01DAB2FB791343DBB2184614377B
:10242C00BD4680BC704780B485B000AF0346FB71DD
:10243C000023FB60FB791B09DBB21A4613469B0099
:10244C0013445B00FB60FB7903F00F03DAB2FB680B
:10245C00DBB21344DBB218461437BD4680BC704760
:10246C0080B586B000AF7860396000237B610023B3
:10247C003B610023FB600023BB607B68DB7B7B61E3
:10248C007B685B7B3B617B689B7BFB600023BB6059
:10249C006FE03B69012B11D03B69032B0ED03B69DC
:1024AC00052B0BD03B69072B08D03B69082B05D0BB
:1024BC003B690A2B02D03B690C2B17D1FB681E2BF6
:1024CC0003D8FB680133FB6050E03B690C2B05D053
:1024DC003B6901333B610123FB6047E001233B6116
:1024EC000123FB607B6901337B613FE03B69042B7B
:1024FC0008D03B69062B05D03B69092B02D03B6900
:10250C000B2B0CD1FB681D2B03D8FB680133FB6034
:10251C002CE03B6901333B610123FB6026E03B6906
:10252C00022B23D1FB681B2B03D8FB680133FB6008
:10253C001CE0FB681C2B11D17B699BB2184600F088
:10254C0039F80346002B03D0FB680133FB600DE028
:10255C003B6901333B610123FB6007E0FB681D2BEA
:10256C0004D13B6901333B610123FB60BB68013340
:10257C00BB60BA683B689A428BD37B69DAB27B68E2
:10258C00DA733B69DAB27B685A73FB68DAB27B6840
:10259C009A733B69DBB2FA68D2B21946786900F0DB
:1025AC003BF803461A467B681A7300BF1837BD46C2
:1025BC0080BD000080B483B000AF0346FB80FB8875
:1025CC0003F003039BB2002B01D000231DE0FB881A
:1025DC00104AA2FB03125209642101FB02F29B1A5E
:1025EC009BB2002B01D001230FE0FB88094AA2FB10
:1025FC000312D2094FF4C87101FB02F29B1A9BB271
:10260C00002B01D1012300E0002318460C37BD46F6
:10261C0080BC70471F85EB5180B485B000AF7860EB
:10262C000B46FB701346BB700023BB600023FB60A2
:10263C007B6803F5FA63BB60FB78022B2DD8FA7824
:10264C0013465B001344DB009B1A2C4AA2FB0323AA
:10265C005A08BB781A44BB681A44BB68013B9B08F8
:10266C001A44BB68013B2649A1FB03135B09D21A30
:10267C00BB68013B2249A1FB0313DB0913441A1D60
:10268C00204BA3FB0213D11A49080B4499080B46A3
:10269C00DB005B1AD31AFB6029E0FA7813465B0067
:1026AC001344DB009B1A154AA2FB03235A08BB7880
:1026BC001A44BB681A44BB689B081A44BB6810498F
:1026CC00A1FB03135B09D21ABB680D49A1FB0313D1
:1026DC00DB0913449A1C0B4BA3FB0213D11A4908B8
:1026EC000B4499080B46DB005B1AD31AFB60FB68A2
:1026FC00DBB218461437BD4680BC7047398EE338C0
:10270C001F85EB5125499224014B1868704700BF77
:10271C000C00002070B500260C4D0D4C641BA41051
:10272C00A64209D100F09CFC00260A4D0A4C641B01
:10273C00A410A64205D170BD55F8043B984701364C
:10274C00EEE755F8043B98470136F2E724310008D0
:10275C0024310008243100082831000803460244C3
:10276C00934200D1704703F8011BF9E70EB46FF0E8
:10277C00004100B59CB01DAB0290069007910491EE
:10278C000848094953F8042B0591006802A90193E4
:10279C0000F068F80022029B1A701CB05DF804EB84
:1027AC0003B070470C0000200802FFFF2DE9F04732
:1027BC008E6882469E420C4690461F4638D88A89BF
:1027CC0012F4906F32D0256809690133A5EB010929
:1027DC0065694B4405EB450505EBD5756D109D42C0
:1027EC0038BF1D46530531D5294600F06FFB064610
:1027FC0050B90C234FF0FF30CAF80030A38943F0D6
:10280C004003A381BDE8F0874A46216900F0CEFA67
:10281C00A38923F4906343F08003A38126614E4483
:10282C0026603E466561A5EB0905A560BE4200D950
:10283C003E4632464146206800F0C6FAA3680020A6
:10284C009B1BA360236833442360DBE72A4600F01C
:10285C00B1FB06460028E1D15046216900F0CEFAC2
:10286C00C7E700002DE9F04F98468B8907461B06F9
:10287C000D4614469DB00ED50B6963B9402100F08E
:10288C0025FB2860286120B90C233B604FF0FF30FA
:10289C00D1E040236B610023099320238DF829306C
:1028AC0030234FF00109CDF80C80DFF8A4818DF8AE
:1028BC002A3023469A4613F8012B0AB1252AF9D15E
:1028CC00BAEB040B0BD05B46224629463846FFF781
:1028DC006DFF013000F0AA80099A5A4409929AF8C7
:1028EC000030002B00F0A28000234FF0FF32CDE926
:1028FC0005230AF1010A049307938DF853301A93B8
:10290C005446052214F8011B514800F041FA049A70
:10291C00D8B9D00644BF20238DF85330110744BFDB
:10292C002B238DF853309AF800302A2B15D05446AF
:10293C0000204FF00A0C079A214611F8013B303B5E
:10294C00092B4ED9B0B1079214E0A0EB080309FA99
:10295C0003F31343A2460493D2E7039B191D1B6890
:10296C000391002BBBBF5B4242F00202079307931B
:10297C00B8BF049223782E2B0CD163782A2B35D137
:10298C00039B02341A1D1B680392002BB8BF4FF037
:10299C00FF330593DFF8BCA003225046217800F0EA
:1029AC00F7F940B14023A0EB0A0003FA00F0049BB6
:1029BC0001340343049314F8011B062226488DF8B6
:1029CC00281000F0E5F9002838D0244B1BBB039BE2
:1029DC00073323F0070308330393099B334409930C
:1029EC0067E70C4601200CFB0232A5E700234FF0F1
:1029FC000A0C194601340593204610F8012B303A85
:102A0C00092A03D9002BC5D00591C3E7044601233D
:102A1C000CFB0121F0E703AB00932A463846104B20
:102A2C0004A9AFF30080421C0646D6D1AB895B06E5
:102A3C003FF52CAF09981DB0BDE8F08F03AB0093A8
:102A4C002A463846064B04A900F07CF8EBE700BF99
:102A5C00EE300008F4300008F830000800000000E8
:102A6C00B92700082DE9F047164699468A680B6984
:102A7C0007469342B8BF1346336091F843200C4687
:102A8C00DDF820800AB1013333602368990642BF18
:102A9C00336802333360256815F0060506D104F15E
:102AAC00190AE36832689B1AAB4228DC94F843207D
:102ABC00131E226818BF012392062DD449463846AE
:102ACC0004F14302C047013020D02368E56803F0CD
:102ADC000603042B18BF002532684FF00006A368CC
:102AEC0008BFAD1A226908BF25EAE5759342C4BF39
:102AFC009B1AED181A34B5421AD1002008E00123B4
:102B0C00524649463846C047013003D14FF0FF309A
:102B1C00BDE8F0870135C4E73020E11881F84300A7
:102B2C005A1C94F845102244023382F84310C5E72E
:102B3C000123224649463846C0470130E6D00136CB
:102B4C00D9E700002DE9FF470F7E9146782F80468C
:102B5C000C469A460C9D01F1430207D8622F0AD805
:102B6C00002F00F0D980582F00F0A48004F142050A
:102B7C0084F842703AE0A7F16303152BF6D801A153
:102B8C0051F823F0E92B0008FD2B0008792B0008E5
:102B9C00792B0008792B0008792B0008FD2B0008F5
:102BAC00792B0008792B0008792B0008792B000869
:102BBC000B2D00082D2C0008ED2C0008792B00089B
:102BCC00792B00082D2D0008792B00082D2C0008DE
:102BDC00792B0008792B0008F52C00082B681A1D9E
:102BEC001B682A6004F1420584F842300123A4E0FA
:102BFC0020682968060601F104030AD50E682B60CB
:102C0C00002E03DA2D23764284F843300A235E48E3
:102C1C0019E00E6810F0400F2B6018BF36B2EFE7CA
:102C2C002B682068191D2960010601D51E6802E079
:102C3C004606FBD51E886F2F0CBF08230A2352486B
:102C4C00002184F843106568002DA8BF2168A56099
:102C5C00A4BF21F0040121600EB9002D4DD0154602
:102C6C00B6FBF3F103FB1167C75D05F8017D374631
:102C7C00BB420E46F4D9082B0BD12368DE0708D5CE
:102C8C00236961689942DEBF302305F8013C05F1E8
:102C9C00FF35521B22614B4621464046CDF800A021
:102CAC0003AAFFF7DFFE01304CD14FF0FF3004B028
:102CBC00BDE8F087344881F845702968236851F8DD
:102CCC00046B29601D0614D5DF0744BF43F02003B5
:102CDC0023601EB9236823F0200323601023AFE781
:102CEC00236843F0200323607823284884F8453078
:102CFC00E3E7590648BFB6B2E6E71546BBE72B68D3
:102D0C002668181D6169286035061B6801D5196095
:102D1C0002E07006FBD51980002315462361BAE743
:102D2C002B6800211A1D2A601D686268284600F075
:102D3C002FF808B1401B606063682361002384F89E
:102D4C004330A8E72A46494640462369D04701301C
:102D5C00ABD023689B0713D4E068039B9842B8BFA1
:102D6C001846A4E70123324649464046D047013075
:102D7C009BD00135E36803995B1AAB42F2DCEBE7BD
:102D8C00002504F11906F5E7FF30000810310008A2
:102D9C00034610B5C9B202449342184601D1002033
:102DAC0003E0047801338C42F6D110BD0A44914201
:102DBC0000F1FF3300D1704710B511F8014B91426F
:102DCC0003F8014FF9D110BD884210B501EB020494
:102DDC0002D98442234607D8431EA14208D011F8D9
:102DEC00012B03F8012FF8E7014602448A4200D177
:102DFC0010BD13F8014D02F8014DF7E738B5054643
:102E0C00002940D051F8043C0C1F002BB8BFE4182B
:102E1C0000F010F91C4A136833B96360146028463B
:102E2C00BDE8384000F00CB9A34208D9206821183D
:102E3C008B4201BF19685B6809182160EDE71A46DF
:102E4C005B680BB1A342FAD911685018A0420BD1A0
:102E5C0020680144501883421160E0D118685B6807
:102E6C00014411605360DAE702D90C232B60D6E7DA
:102E7C00206821188B4201BF19685B680918216012
:102E8C0063605460CBE738BDB800002070B50E4EBF
:102E9C000C463168054611B900F0BCF8306021468B
:102EAC00284600F0B7F8431C0AD0C41C24F00304D5
:102EBC00A04207D0211A284600F0ACF8013001D10D
:102ECC004FF0FF34204670BDBC0000202DE9F041CE
:102EDC00CD1C25F0030508350C2D38BF0C25002D15
:102EEC00074601DBA94205D90C2300263B6030467E
:102EFC00BDE8F0812E4E00F09DF833681C4634BBC3
:102F0C0029463846FFF7C2FF431C04464DD13468AE
:102F1C002646002E40D123683146384604EB030880
:102F2C0000F078F880453AD1216803356D1A25F008
:102F3C00030508350C2D38BF0C2538462946FFF7FC
:102F4C00A5FF01302BD023682B4423600EE02268B0
:102F5C00521B1ED40B2A16D96119A342256018BF27
:102F6C005960636808BF316062514B60384604F1A8
:102F7C000B0600F065F826F00706231DF21AB6D0F2
:102F8C009B1BA350B3E76268A3420CBF32605A602C
:102F9C00ECE723466468B2E734467668B9E70C235D
:102FAC0038463B6000F04CF8A1E72560DEE700BF37
:102FBC00B80000202DE9F041804614460E4621B998
:102FCC001146BDE8F041FFF781BF2AB9FFF716FFA4
:102FDC0025462846BDE8F08100F038F884420746C3
:102FEC0002D8B4EB500F12D821464046FFF76EFFC3
:102FFC0005460028EDD0BC422246314628BF3A4651
:10300C00FFF7D4FE31464046FFF7F8FEE1E73546C0
:10301C00DFE7000038B50023054D044608462B6059
:10302C00FDF774FB431C02D12B6803B1236038BD40
:10303C00C0000020014800F011B800BFC4000020FF
:10304C00014800F00CB800BFC400002051F8043C4B
:10305C00181F002BBCBF0B58C01870477047704727
:10306C00F8B500BFF8BC08BC9E467047F8B500BF69
:08307C00F8BC08BC9E46704739
:1030840054696D653A253032753A253032753A25E2
:1030940030327500416C61726D3A253032753A25D3
:1030A4003032753A2530327500000000000000000F
:1030B40000000000010203040607080900000000E4
:1030C4000102030402030405060708090A0B0C0D98
:1030D4000E0F101001020000020304050607080980
:1030E4000A0B0C0D0E0F10100102232D302B2000A3
:1030F400686C4C00656667454647003031323334AE
:10310400353637383941424344454600303132334D
:10311400343536373839616263646566000000000F
:04312400310100086D
:043128000D0100088D
:10312C000024F4001000000001000000100000203A
:10313C000000000000000000000000000000000083
:10314C000000000000000000000000000000000073
:10315C000000000000000000000000000000000063
:10316C000000000000000000000000000000000053
:10317C000000000000000000000000000000000043
:10318C000000000000000000000000000000000033
:040000050800079157
:00000001FF
